C51 COMPILER V9.00   P8563                                                                 12/29/2020 21:56:30 PAGE 1   


C51 COMPILER V9.00, COMPILATION OF MODULE P8563
OBJECT MODULE PLACED IN .\Objects\P8563.obj
COMPILER INVOKED BY: C:\Keil_v5\C51\BIN\C51.EXE ..\HARDWARE\PCF\P8563.C OMF2 OPTIMIZE(9,SPEED) BROWSE INCDIR(..\HARDWARE
                    -\OLED;..\Project;..\TINY;..\HARDWARE\DS1203;..\HARDWARE\USART;..\HARDWARE\KEY;..\HARDWARE\AT24C02;..\HARDWARE\ADC;..\HAR
                    -DWARE\IIC;..\HARDWARE\PCF) DEBUG PRINT(.\Listings\P8563.lst) TABS(2) OBJECT(.\Objects\P8563.obj)

line level    source

   1          //******************************************
   2          /*------------------------------------------
   3                         加载头文件
   4          ------------------------------------------*/
   5          //******************************************
   6          #include "main.h"   
   7          #include "I2C.h"
   8          
   9          
  10          /*
  11          #define YEAR_REG  0x08
  12          #define MONTH_REG 0x07
  13          #define WEEK_REG  0x06
  14          #define DATA_REG  0x05
  15          #define HOUR_REG  0x04
  16          #define MIN_REG   0x03
  17          #define SEC_REG   0x02*/
  18          
  19          #define P8563_SLA 0xA2
  20          
  21          
  22          /*********************************全局函数定义******************************/
  23          //向P8563内指定寄存器写入值
  24          bit P8563_SendStr(unsigned char sub_addr, unsigned char *send_buf, unsigned char data_no);
  25          //从P8563内指定寄存器读出值
  26          bit P8563_RcvStr(unsigned char sub_addr, unsigned char *rec_buf, unsigned char data_no);
  27          
  28          
  29          
  30          
  31          /**********************************
  32          向P8563内指定寄存器写入值
  33          函数原形：P8563_SendStr(unsigned char sub_addr, unsigned char *send_buf, unsigned char data_no)
  34          函数功能：从启动总线到发送地址，子地址,数据，结束总线的全过程,
  35                子地址suba，发送内容是s指向的内容，
  36                发送no个字节。如果返回1表示操作成功，否则操作有误。
  37          入口参数：unsigned char sub_addr, 
  38                unsigned char *send_buf, 
  39                unsigned char data_no
  40          出口参数：返回是否成功标志位
  41          注意：    使用前必须已结束总线。
  42          **********************************/
  43          bit P8563_SendStr(unsigned char sub_addr, unsigned char *send_buf, unsigned char data_no)
  44          {
  45   1          bit rec_result;
  46   1      
  47   1          rec_result = ISendStr(P8563_SLA, sub_addr, send_buf, data_no);
  48   1          
  49   1          return(rec_result);
  50   1      }
  51          
  52          
  53          
C51 COMPILER V9.00   P8563                                                                 12/29/2020 21:56:30 PAGE 2   

  54          
  55          
  56          /**********************************
  57          //从P8563内指定寄存器读出值
  58          函数原形：P8563_RcvStr(unsigned char sub_addr, unsigned char *rec_buf, unsigned char data_no)
  59          函数功能：从启动总线到发送地址，子地址,数据，结束总线的全过程,
  60                子地址suba，发送内容是s指向的内容，
  61                发送no个字节。如果返回1表示操作成功，否则操作有误。
  62          入口参数：unsigned char sub_addr, 
  63                unsigned char *rec_buf, 
  64                unsigned char data_no
  65          出口参数：返回是否成功标志位
  66          注意：    使用前必须已结束总线。
  67          **********************************/
  68          bit P8563_RcvStr(unsigned char sub_addr, unsigned char *rec_buf, unsigned char data_no)
  69          {
  70   1          bit rec_result;
  71   1      
  72   1          rec_result = IRcvStr(P8563_SLA, sub_addr, rec_buf, data_no);
  73   1      
  74   1          rec_buf[0] &= 0x7F;
  75   1          rec_buf[1] &= 0x7F;
  76   1          rec_buf[2] &= 0x3F;
  77   1          rec_buf[3] &= 0x3F;
  78   1          rec_buf[4] &= 0x07;
  79   1          rec_buf[5] &= 0x1F;
  80   1          
  81   1          return(rec_result);
  82   1      }
  83           
  84           
  85           
  86            


MODULE INFORMATION:   STATIC OVERLAYABLE
   CODE SIZE        =    116    ----
   CONSTANT SIZE    =   ----    ----
   XDATA SIZE       =   ----    ----
   PDATA SIZE       =   ----    ----
   DATA SIZE        =   ----      10
   IDATA SIZE       =   ----    ----
   BIT SIZE         =   ----       2
   EDATA SIZE       =   ----    ----
   HDATA SIZE       =   ----    ----
   XDATA CONST SIZE =   ----    ----
   FAR CONST SIZE   =   ----    ----
END OF MODULE INFORMATION.


C51 COMPILATION COMPLETE.  0 WARNING(S),  0 ERROR(S)
