LX51 LINKER/LOCATER V4.41                                                               12/29/2020  21:56:30  PAGE 1


LX51 LINKER/LOCATER V4.41, INVOKED BY:
C:\KEIL_V5\C51\BIN\LX51.EXE .\Objects\main.obj, .\Objects\usart.obj, .\Objects\key.obj, .\Objects\AT24C02.obj, .\Objects
>> \ADS1015.obj, .\Objects\I2C.obj, .\Objects\P8563.obj, .\Objects\oled.obj, .\Objects\Conf_tny.obj, ..\TINY\RTX51TNY.LI
>> B TO .\Objects\temp_show RTX51TINY PRINT (.\Listings\temp_show.map) DISABLEWARNING (15) REMOVEUNUSED


CPU MODE:     8051 MODE
MEMORY MODEL: SMALL WITH FLOATING POINT ARITHMETIC


INPUT MODULES INCLUDED:
  .\Objects\main.obj (MAIN)
         COMMENT TYPE 0: C51 V9.00
  .\Objects\usart.obj (USART)
         COMMENT TYPE 0: C51 V9.00
  .\Objects\key.obj (KEY)
         COMMENT TYPE 0: C51 V9.00
  .\Objects\AT24C02.obj (AT24C02)
         COMMENT TYPE 0: C51 V9.00
  .\Objects\ADS1015.obj (ADS1015)
         COMMENT TYPE 0: C51 V9.00
  .\Objects\I2C.obj (I2C)
         COMMENT TYPE 0: C51 V9.00
  .\Objects\P8563.obj (P8563)
         COMMENT TYPE 0: C51 V9.00
  .\Objects\oled.obj (OLED)
         COMMENT TYPE 0: C51 V9.00
  .\Objects\Conf_tny.obj (?RTX51_TINY_KERNAL)
         COMMENT TYPE 1: A51 / ASM51 Assembler
  ..\TINY\RTX51TNY.LIB (?RTX51_TINY_OS_CREATE)
         COMMENT TYPE 1: A51 / ASM51 Assembler
  ..\TINY\RTX51TNY.LIB (?RTX51_TINY_OS_DELETE)
         COMMENT TYPE 1: A51 / ASM51 Assembler
  ..\TINY\RTX51TNY.LIB (?RTX51_TINY_OS_SEND_SIGNAL)
         COMMENT TYPE 1: A51 / ASM51 Assembler
  ..\TINY\RTX51TNY.LIB (?RTX51_TINY_OS_WAIT)
         COMMENT TYPE 1: A51 / ASM51 Assembler
  C:\KEIL_V5\C51\LIB\C51FPS.LIB (?C?FPADD)
         COMMENT TYPE 1: A51 / ASM51 Assembler
  C:\KEIL_V5\C51\LIB\C51FPS.LIB (?C?FPMUL)
         COMMENT TYPE 1: A51 / ASM51 Assembler
  C:\KEIL_V5\C51\LIB\C51FPS.LIB (?C?FCAST)
         COMMENT TYPE 1: A51 / ASM51 Assembler
  C:\KEIL_V5\C51\LIB\C51FPS.LIB (?C?CASTF)
         COMMENT TYPE 1: A51 / ASM51 Assembler
  C:\KEIL_V5\C51\LIB\C51FPS.LIB (?C?FPGETOPN)
         COMMENT TYPE 1: A51 / ASM51 Assembler
  C:\KEIL_V5\C51\LIB\C51S.LIB (?C_STARTUP)
         COMMENT TYPE 1: A51 / ASM51 Assembler
  C:\KEIL_V5\C51\LIB\C51S.LIB (?C?CLDPTR)
         COMMENT TYPE 1: A51 / ASM51 Assembler
  C:\KEIL_V5\C51\LIB\C51S.LIB (?C?CLDOPTR)
         COMMENT TYPE 1: A51 / ASM51 Assembler
  C:\KEIL_V5\C51\LIB\C51S.LIB (?C?CSTPTR)
         COMMENT TYPE 1: A51 / ASM51 Assembler
  C:\KEIL_V5\C51\LIB\C51S.LIB (?C?IMUL)
         COMMENT TYPE 1: A51 / ASM51 Assembler
  C:\KEIL_V5\C51\LIB\C51S.LIB (?C?UIDIV)
         COMMENT TYPE 1: A51 / ASM51 Assembler
  C:\KEIL_V5\C51\LIB\C51S.LIB (?C?SIDIV)
         COMMENT TYPE 1: A51 / ASM51 Assembler
  C:\KEIL_V5\C51\LIB\C51S.LIB (?C?LNEG)
         COMMENT TYPE 1: A51 / ASM51 Assembler
  C:\KEIL_V5\C51\LIB\C51S.LIB (?C_INIT)
         COMMENT TYPE 1: A51 / ASM51 Assembler

LX51 LINKER/LOCATER V4.41                                                             12/29/2020  21:56:30  PAGE 2



ACTIVE MEMORY CLASSES OF MODULE:  .\Objects\temp_show (MAIN)

BASE        START       END         USED      MEMORY CLASS
==========================================================
C:000000H   C:000000H   C:00FFFFH   001D8AH   CODE
I:000000H   I:000000H   I:00007FH   000062H   DATA
X:000000H   X:000000H   X:00FFFFH   00006EH   XDATA
I:000020H.0 I:000020H.0 I:00002FH.7 000001H.0 BIT
C:000000H   C:000000H   C:00FFFFH   000228H   CONST
I:000000H   I:000000H   I:0000FFH   000019H   IDATA


TASK TABLE OF MODULE:  .\Objects\temp_show (MAIN)

TASKID   PRIORITY   REG-BANK   SEGMENT NAME (OFFSET)
====================================================
0        0          0          ?PR?MAINTASK?MAIN (00H)
1        0          0          ?PR?ADCTASK?MAIN (00H)
2        0          0          ?PR?UARTTASK?MAIN (00H)
3        0          0          ?PR?KEYTASK?MAIN (00H)
4        0          0          ?PR?OLEDTASK?MAIN (00H)
5        0          0          ?PR?TIMETASK?MAIN (00H)
6        0          0          ?PR?BEEPTASK?MAIN (00H)
7        0          0          ?PR?NUMSETTASK?MAIN (00H)



MEMORY MAP OF MODULE:  .\Objects\temp_show (MAIN)


START     STOP      LENGTH    ALIGN  RELOC    MEMORY CLASS   SEGMENT NAME
=========================================================================

* * * * * * * * * * *   D A T A   M E M O R Y   * * * * * * * * * * * * *
000000H   000007H   000008H   ---    AT..     DATA           "REG BANK 0"
000008H   00000DH   000006H   ---    OFFS..   DATA           ?DA??RTX51_TINY_KERNAL?0
00000EH   000019H   00000CH   BYTE   UNIT     DATA           ?DT?MAIN
00001AH.0 00001FH.7 000006H.0 ---    ---      **GAP**
000020H.0 000020H.5 000000H.6 BIT    UNIT     BIT            _BIT_GROUP_
000020H.6 000020H.6 000000H.1 BIT    UNIT     BIT            ?BI?I2C
000020H.7 000020H.7 000000H.1 BIT    UNIT     BIT            ?RTX?BITS
000021H   000068H   000048H   BYTE   UNIT     DATA           _DATA_GROUP_
000069H   000078H   000010H   BYTE   UNIT     IDATA          ?RTX?TASKSTATE?S
000079H   000080H   000008H   BYTE   UNIT     IDATA          ?RTX?TASKSP?S
000081H   000081H   000001H   BYTE   UNIT     IDATA          ?STACK

* * * * * * * * * * *   C O D E   M E M O R Y   * * * * * * * * * * * * *
000000H   000002H   000003H   ---    OFFS..   CODE           ?CO??C_STARTUP?0
000003H   000009H   000007H   BYTE   UNIT     CODE           ?PR?_DELAY_MS?MAIN
00000AH   00000AH   000001H   ---    ---      **GAP**
00000BH   00000DH   000003H   ---    OFFS..   CODE           ?CO??RTX51_TINY_KERNAL?1
00000EH   000020H   000013H   BYTE   UNIT     CODE           ?PR?_SEND_STRING?USART
000021H   000022H   000002H   ---    ---      **GAP**
000023H   000025H   000003H   BYTE   OFFS..   CODE           ?USART?00023
000026H   0003E5H   0003C0H   BYTE   UNIT     CODE           ?C?LIB_CODE
0003E6H   00079CH   0003B7H   BYTE   UNIT     CODE           ?PR?OLEDTASK?MAIN
00079DH   000AA6H   00030AH   BYTE   UNIT     CODE           ?RTX?CODE
000AA7H   000D22H   00027CH   BYTE   UNIT     CODE           ?PR?UARTTASK?MAIN
000D23H   000F8BH   000269H   BYTE   UNIT     CODE           ?PR?KEYTASK?MAIN
000F8CH   001195H   00020AH   BYTE   UNIT     CODE           ?PR?MAIN
001196H   00132CH   000197H   BYTE   UNIT     CODE           ?PR?NUMSETTASK?MAIN
00132DH   001414H   0000E8H   BYTE   UNIT     CODE           ?PR?BEEPTASK?MAIN
001415H   0014D9H   0000C5H   BYTE   UNIT     CODE           ?PR?MAINTASK?MAIN
0014DAH   00158EH   0000B5H   BYTE   UNIT     CODE           ?PR?ADCTASK?MAIN
LX51 LINKER/LOCATER V4.41                                                             12/29/2020  21:56:30  PAGE 3


00158FH   00161AH   00008CH   BYTE   UNIT     CODE           ?C_C51STARTUP
00161BH   0016A1H   000087H   BYTE   UNIT     CODE           ?CO?MAIN
0016A2H   001726H   000085H   BYTE   UNIT     CODE           ?PR?KEYDOWN?KEY
001727H   0017A9H   000083H   BYTE   UNIT     CODE           ?PR?OLED_INIT?OLED
0017AAH   001813H   00006AH   BYTE   UNIT     CODE           ?PR?_OLED_SHOWNUM?OLED
001814H   001870H   00005DH   BYTE   UNIT     CODE           ?C_INITSEG
001871H   0018C9H   000059H   BYTE   UNIT     CODE           ?PR?TIMETASK?MAIN
0018CAH   00191FH   000056H   BYTE   UNIT     CODE           ?PR?USART_RX?USART
001920H   00196AH   00004BH   BYTE   UNIT     CODE           ?PR?_P8563_RCVSTR?P8563
00196BH   0019B4H   00004AH   BYTE   UNIT     CODE           ?PR?_IRCVSTR?I2C
0019B5H   0019FDH   000049H   BYTE   UNIT     CODE           ?PR?_OLED_SHOWCHAR?OLED
0019FEH   001A3EH   000041H   BYTE   UNIT     CODE           ?PR?_I2CSENDBYTE?AT24C02
001A3FH   001A7EH   000040H   BYTE   UNIT     CODE           ?PR?_OLED_SHOWSTRING?OLED
001A7FH   001ABDH   00003FH   BYTE   UNIT     CODE           ?PR?_SENDBYTE?I2C
001ABEH   001AF7H   00003AH   BYTE   UNIT     CODE           ?PR?OLED
001AF8H   001B29H   000032H   BYTE   UNIT     CODE           ?PR?_ISENDSTR?I2C
001B2AH   001B5AH   000031H   BYTE   UNIT     CODE           ?PR?_START_CONVERSION?ADS1015
001B5BH   001B87H   00002DH   BYTE   UNIT     CODE           ?PR?OLED_CLEAR?OLED
001B88H   001BADH   000026H   BYTE   UNIT     CODE           ?PR?I2CREADBYTE?AT24C02
001BAEH   001BD3H   000026H   BYTE   UNIT     CODE           ?PR?_OLED_SET_POS?OLED
001BD4H   001BF7H   000024H   BYTE   UNIT     CODE           ?PR?RCVBYTE?I2C
001BF8H   001C19H   000022H   BYTE   UNIT     CODE           ?PR?_AT24C02READ?AT24C02
001C1AH   001C38H   00001FH   BYTE   UNIT     CODE           ?PR?_WRITE_IIC_BYTE?OLED
001C39H   001C52H   00001AH   BYTE   UNIT     CODE           ?PR?P8563
001C53H   001C6BH   000019H   BYTE   UNIT     CODE           ?PR?_AT24C02WRITE?AT24C02
001C6CH   001C83H   000018H   BYTE   UNIT     CODE           ?PR?ACK_I2C?I2C
001C84H   001C9BH   000018H   BYTE   UNIT     CODE           ?PR?_OLED_POW?OLED
001C9CH   001CB1H   000016H   BYTE   UNIT     CODE           ?PR?USART_INIT?USART
001CB2H   001CC7H   000016H   BYTE   UNIT     CODE           ?PR?START_I2C?I2C
001CC8H   001CD8H   000011H   BYTE   UNIT     CODE           ?PR?STOP_I2C?I2C
001CD9H   001CE9H   000011H   BYTE   UNIT     CODE           ?PR?_OLED_WR_BYTE?OLED
001CEAH   001CF9H   000010H   BYTE   UNIT     CODE           ?PR?I2C
001CFAH   001D09H   000010H   BYTE   UNIT     CODE           ?PR?IIC_WAIT_ACK?OLED
001D0AH   001D19H   000010H   BYTE   UNIT     CODE           ?RTX?TASKENT?S
001D1AH   001D28H   00000FH   BYTE   UNIT     CODE           ?PR?I2CSTART?AT24C02
001D29H   001D37H   00000FH   BYTE   UNIT     CODE           ?PR?_P8563_SENDSTR?P8563
001D38H   001D45H   00000EH   BYTE   UNIT     CODE           ?PR?DELAY10US?AT24C02
001D46H   001D51H   00000CH   BYTE   UNIT     CODE           ?PR?_SEND_BYTE?USART
001D52H   001D5CH   00000BH   BYTE   UNIT     CODE           ?PR?_READ_CONVERSION?ADS1015
001D5DH   001D67H   00000BH   BYTE   UNIT     CODE           ?PR?_WRITE_IIC_COMMAND?OLED
001D68H   001D72H   00000BH   BYTE   UNIT     CODE           ?PR?_WRITE_IIC_DATA?OLED
001D73H   001D7CH   00000AH   BYTE   UNIT     CODE           ?PR?I2CSTOP?AT24C02
001D7DH   001D85H   000009H   BYTE   UNIT     CODE           ?PR?IIC_START?OLED
001D86H   001D8CH   000007H   BYTE   UNIT     CODE           ?PR?IIC_STOP?OLED
001D8DH   001FB4H   000228H   BYTE   UNIT     CONST          ?CO?OLED

* * * * * * * * * * *  X D A T A   M E M O R Y  * * * * * * * * * * * * *
000000H   000063H   000064H   BYTE   UNIT     XDATA          ?XD?MAIN
000064H   00006DH   00000AH   BYTE   UNIT     XDATA          _XDATA_GROUP_

* * * * * * * * *   R E M O V E D     S E G M E N T S   * * * * * * * *
   *DEL*:           000017H   BYTE   UNIT     CODE           ?PR?_ISENDBYTE?I2C
   *DEL*:           000033H   BYTE   UNIT     CODE           ?PR?_MRCVBYTE?I2C
   *DEL*:           000005H   BYTE   UNIT     DATA           ?DT?_MRCVBYTE?I2C
   *DEL*:           000029H   BYTE   UNIT     CODE           ?PR?_MSENDSTR?I2C
   *DEL*:           000005H   BYTE   UNIT     DATA           ?DT?_MSENDSTR?I2C
   *DEL*:           000009H   BYTE   UNIT     CODE           ?PR?OLED_DISPLAY_ON?OLED
   *DEL*:           000010H   BYTE   UNIT     CODE           ?PR?OLED_DISPLAY_OFF?OLED
   *DEL*:           00002EH   BYTE   UNIT     CODE           ?PR?OLED_ON?OLED
   *DEL*:           000001H   BYTE   UNIT     DATA           ?DT?OLED_ON?OLED



OVERLAY MAP OF MODULE:   .\Objects\temp_show (MAIN)

LX51 LINKER/LOCATER V4.41                                                             12/29/2020  21:56:30  PAGE 4



FUNCTION/MODULE                 BIT_GROUP   DATA_GROUP   XDATA_GROUP
--> CALLED FUNCTION/MODULE     START  STOP  START  STOP  START  STOP
====================================================================
MAINTASK/MAIN                  ----- -----  0021H 0021H  ----- -----
  +--> ?PR?OLED_INIT?OLED
  +--> ?PR?USART_INIT?USART
  +--> ?PR?_AT24C02READ?AT24C02
  +--> ?PR?MAIN
  +--> ?PR?_DELAY_MS?MAIN

OLED_INIT/OLED                 ----- -----  ----- -----  ----- -----
  +--> ?PR?OLED
  +--> ?PR?_OLED_WR_BYTE?OLED

OLED                           ----- -----  ----- -----  ----- -----
  +--> ?PR?_OLED_WR_BYTE?OLED
  +--> ?PR?IIC_START?OLED
  +--> ?PR?_WRITE_IIC_BYTE?OLED
  +--> ?PR?IIC_WAIT_ACK?OLED

_OLED_WR_BYTE/OLED             ----- -----  ----- -----  ----- -----
  +--> ?PR?_WRITE_IIC_DATA?OLED
  +--> ?PR?_WRITE_IIC_COMMAND?OLED

_WRITE_IIC_DATA/OLED           ----- -----  ----- -----  ----- -----
  +--> ?PR?IIC_WAIT_ACK?OLED
  +--> ?PR?IIC_STOP?OLED

IIC_WAIT_ACK/OLED              ----- -----  ----- -----  ----- -----
  +--> ?PR?_WRITE_IIC_BYTE?OLED

_WRITE_IIC_BYTE/OLED           ----- -----  ----- -----  ----- -----

IIC_STOP/OLED                  ----- -----  ----- -----  ----- -----

_WRITE_IIC_COMMAND/OLED        ----- -----  ----- -----  ----- -----
  +--> ?PR?IIC_WAIT_ACK?OLED
  +--> ?PR?IIC_STOP?OLED

IIC_START/OLED                 ----- -----  ----- -----  ----- -----

USART_INIT/USART               ----- -----  ----- -----  ----- -----

_AT24C02READ/AT24C02           ----- -----  ----- -----  ----- -----
  +--> ?PR?I2CSTART?AT24C02
  +--> ?PR?_I2CSENDBYTE?AT24C02
  +--> ?PR?I2CREADBYTE?AT24C02
  +--> ?PR?I2CSTOP?AT24C02

I2CSTART/AT24C02               ----- -----  ----- -----  ----- -----
  +--> ?PR?DELAY10US?AT24C02

DELAY10US/AT24C02              ----- -----  ----- -----  ----- -----

_I2CSENDBYTE/AT24C02           ----- -----  ----- -----  ----- -----
  +--> ?PR?DELAY10US?AT24C02

I2CREADBYTE/AT24C02            ----- -----  ----- -----  ----- -----
  +--> ?PR?DELAY10US?AT24C02

I2CSTOP/AT24C02                ----- -----  ----- -----  ----- -----
  +--> ?PR?DELAY10US?AT24C02

MAIN                           ----- -----  ----- -----  ----- -----
LX51 LINKER/LOCATER V4.41                                                             12/29/2020  21:56:30  PAGE 5



_DELAY_MS/MAIN                 ----- -----  ----- -----  ----- -----

*** NEW ROOT *****************

ADCTASK/MAIN                   ----- -----  0022H 0027H  ----- -----
  +--> ?PR?_START_CONVERSION?ADS1015
  +--> ?PR?_DELAY_MS?MAIN
  +--> ?PR?_READ_CONVERSION?ADS1015
  +--> ?PR?MAIN

_START_CONVERSION/ADS1015      20H.0 20H.0  0028H 0029H  ----- -----
  +--> ?PR?_ISENDSTR?I2C

_ISENDSTR/I2C                  ----- -----  0063H 0068H  ----- -----
  +--> ?PR?_SENDBYTE?I2C
  +--> ?PR?I2C
  +--> ?PR?STOP_I2C?I2C

_SENDBYTE/I2C                  ----- -----  ----- -----  ----- -----
  +--> ?PR?START_I2C?I2C

START_I2C/I2C                  ----- -----  ----- -----  ----- -----

I2C                            ----- -----  ----- -----  ----- -----
  +--> ?PR?RCVBYTE?I2C

RCVBYTE/I2C                    ----- -----  ----- -----  ----- -----

STOP_I2C/I2C                   ----- -----  ----- -----  ----- -----

_READ_CONVERSION/ADS1015       20H.0 20H.0  ----- -----  ----- -----
  +--> ?PR?_IRCVSTR?I2C

_IRCVSTR/I2C                   ----- -----  0056H 005BH  ----- -----
  +--> ?PR?START_I2C?I2C
  +--> ?PR?_SENDBYTE?I2C
  +--> ?PR?I2C
  +--> ?PR?ACK_I2C?I2C
  +--> ?PR?STOP_I2C?I2C

ACK_I2C/I2C                    20H.4 20H.4  ----- -----  ----- -----

*** NEW ROOT *****************

UARTTASK/MAIN                  ----- -----  ----- -----  0064H 006DH
  +--> ?PR?_SEND_STRING?USART
  +--> ?PR?MAIN
  +--> ?CO?MAIN
  +--> ?PR?_P8563_SENDSTR?P8563
  +--> ?PR?_AT24C02WRITE?AT24C02
  +--> ?PR?_DELAY_MS?MAIN

_SEND_STRING/USART             ----- -----  ----- -----  ----- -----
  +--> ?PR?_SEND_BYTE?USART

_SEND_BYTE/USART               ----- -----  ----- -----  ----- -----

?CO?MAIN                       ----- -----  ----- -----  ----- -----

_P8563_SENDSTR/P8563           20H.5 20H.5  005EH 0062H  ----- -----
  +--> ?PR?_ISENDSTR?I2C

_AT24C02WRITE/AT24C02          ----- -----  ----- -----  ----- -----
  +--> ?PR?I2CSTART?AT24C02
LX51 LINKER/LOCATER V4.41                                                             12/29/2020  21:56:30  PAGE 6


  +--> ?PR?_I2CSENDBYTE?AT24C02
  +--> ?PR?I2CSTOP?AT24C02

*** NEW ROOT *****************

KEYTASK/MAIN                   ----- -----  003BH 003BH  ----- -----
  +--> ?PR?KEYDOWN?KEY
  +--> ?PR?MAIN
  +--> ?PR?_DELAY_MS?MAIN

KEYDOWN/KEY                    ----- -----  003CH 003DH  ----- -----
  +--> ?PR?_DELAY_MS?MAIN

*** NEW ROOT *****************

OLEDTASK/MAIN                  ----- -----  003EH 0042H  ----- -----
  +--> ?PR?OLED_CLEAR?OLED
  +--> ?CO?MAIN
  +--> ?PR?_OLED_SHOWSTRING?OLED
  +--> ?PR?MAIN
  +--> ?PR?_OLED_SHOWNUM?OLED
  +--> ?PR?_DELAY_MS?MAIN
  +--> ?PR?_OLED_SHOWCHAR?OLED

OLED_CLEAR/OLED                ----- -----  0043H 0043H  ----- -----
  +--> ?PR?OLED
  +--> ?PR?_OLED_WR_BYTE?OLED

_OLED_SHOWSTRING/OLED          ----- -----  0043H 0049H  ----- -----
  +--> ?PR?_OLED_SHOWCHAR?OLED

_OLED_SHOWCHAR/OLED            ----- -----  004CH 0050H  ----- -----
  +--> ?PR?_OLED_SET_POS?OLED
  +--> ?CO?OLED
  +--> ?PR?_OLED_WR_BYTE?OLED

_OLED_SET_POS/OLED             ----- -----  ----- -----  ----- -----
  +--> ?PR?OLED
  +--> ?PR?_OLED_WR_BYTE?OLED

?CO?OLED                       ----- -----  ----- -----  ----- -----

_OLED_SHOWNUM/OLED             ----- -----  0043H 004BH  ----- -----
  +--> ?PR?_OLED_POW?OLED
  +--> ?PR?OLED
  +--> ?PR?_OLED_SHOWCHAR?OLED

_OLED_POW/OLED                 ----- -----  004CH 004CH  ----- -----

*** NEW ROOT *****************

TIMETASK/MAIN                  ----- -----  ----- -----  ----- -----
  +--> ?PR?_P8563_RCVSTR?P8563
  +--> ?PR?MAIN
  +--> ?PR?_DELAY_MS?MAIN

_P8563_RCVSTR/P8563            20H.3 20H.3  0051H 0055H  ----- -----
  +--> ?PR?_IRCVSTR?I2C
  +--> ?PR?P8563

P8563                          ----- -----  ----- -----  ----- -----

*** NEW ROOT *****************

BEEPTASK/MAIN                  ----- -----  005CH 005DH  ----- -----
LX51 LINKER/LOCATER V4.41                                                             12/29/2020  21:56:30  PAGE 7


  +--> ?PR?MAIN

*** NEW ROOT *****************

NUMSETTASK/MAIN                ----- -----  ----- -----  ----- -----
  +--> ?PR?_P8563_SENDSTR?P8563
  +--> ?PR?_DELAY_MS?MAIN
  +--> ?PR?MAIN
  +--> ?PR?_AT24C02WRITE?AT24C02

*** NEW ROOT *****************

USART_RX/USART                 ----- -----  ----- -----  ----- -----

*** NEW ROOT *****************

?C_C51STARTUP                  ----- -----  ----- -----  ----- -----
  +--> ?C_INITSEG

?C_INITSEG                     ----- -----  ----- -----  ----- -----



PUBLIC SYMBOLS OF MODULE:  .\Objects\temp_show (MAIN)


      VALUE       CLASS    TYPE      PUBLIC SYMBOL NAME
      =================================================
      00000056H   DATA     BYTE      ?_IRcvStr?BYTE
      00000063H   DATA     BYTE      ?_ISendStr?BYTE
*DEL*:00000000H   DATA     BYTE      ?_mRcvByte?BYTE
*DEL*:00000000H   DATA     BYTE      ?_mSendStr?BYTE
      0000004CH   DATA     BYTE      ?_OLED_ShowChar?BYTE
      00000043H   DATA     BYTE      ?_OLED_ShowNum?BYTE
      00000043H   DATA     BYTE      ?_OLED_ShowString?BYTE
      00000051H   DATA     BYTE      ?_P8563_RcvStr?BYTE
      0000005EH   DATA     BYTE      ?_P8563_SendStr?BYTE
      01000262H   CODE     ---       ?C?CASTF
      010002FCH   CODE     ---       ?C?CLDOPTR
      010002E3H   CODE     ---       ?C?CLDPTR
      00000000H   NUMBER   ---       ?C?CODESEG
      01000329H   CODE     ---       ?C?CSTPTR
      0100022EH   CODE     ---       ?C?FCASTC
      01000229H   CODE     ---       ?C?FCASTI
      01000224H   CODE     ---       ?C?FCASTL
      0100002DH   CODE     ---       ?C?FPADD
      01000299H   CODE     ---       ?C?FPGETOPN2
      0100011EH   CODE     ---       ?C?FPMUL
      010002CEH   CODE     ---       ?C?FPNANRESULT
      010002D8H   CODE     ---       ?C?FPOVERFLOW
      010002B0H   CODE     ---       ?C?FPRESULT
      010002C4H   CODE     ---       ?C?FPRESULT2
      01000029H   CODE     ---       ?C?FPSUB
      010002D5H   CODE     ---       ?C?FPUNDERFLOW
      0100033BH   CODE     ---       ?C?IMUL
      010003D8H   CODE     ---       ?C?LNEG
      010003A2H   CODE     ---       ?C?SIDIV
      0100034DH   CODE     ---       ?C?UIDIV
      00000000H   NUMBER   ---       ?C?XDATASEG
      010015D6H   CODE     ---       ?C_START
      01000000H   CODE     ---       ?C_STARTUP
      010007ECH   CODE     ---       ?RTX?SET_ISR
      00000008H   NUMBER   ---       ?RTX_CNTTASK
      0000000CH   DATA     ---       ?RTX_CURRENTTASK
      00000000H   NUMBER   ---       ?RTX_FTASKCONTEXT?1
LX51 LINKER/LOCATER V4.41                                                             12/29/2020  21:56:30  PAGE 8


      00000000H   NUMBER   ---       ?RTX_FTASKCONTEXT?2
      00000000H   NUMBER   ---       ?RTX_FTASKCONTEXT?3
      00000000H   NUMBER   ---       ?RTX_FTASKDATA?1
      00000000H   NUMBER   ---       ?RTX_FTASKDATA?2
      00000000H   NUMBER   ---       ?RTX_FTASKDATA?3
      00000007H   NUMBER   ---       ?RTX_MAXTASKN
      00000007H   DATA     ---       ?RTX_NEXTID
      0100082FH   CODE     ---       ?RTX_NEXTTASK
      00000000H   NUMBER   ---       ?RTX_PBP
      000000FFH   NUMBER   ---       ?RTX_RAMTOP
      00000000H   NUMBER   ---       ?RTX_REENTRANT
      01001D0AH   CODE     ---       ?RTX_TASKENTRY
      0100090EH   CODE     ---       ?RTX_TASKIDX
      00000079H   IDATA    ---       ?RTX_TASKSP
      00000069H   IDATA    ---       ?RTX_TASKSTATUS
      01001BF8H   CODE     ---       _At24c02Read
      01001C53H   CODE     ---       _At24c02Write
      01000003H   CODE     ---       _delay_ms
      010019FEH   CODE     ---       _I2cSendByte
      0100196BH   CODE     ---       _IRcvStr
*DEL*:00000000H   CODE     ---       _ISendByte
      01001AF8H   CODE     ---       _ISendStr
      01000A21H   CODE     ---       _ISR_SEND_SIGNAL
*DEL*:00000000H   CODE     ---       _mRcvByte
*DEL*:00000000H   CODE     ---       _mSendStr
      01001C84H   CODE     ---       _oled_pow
      01001BAEH   CODE     ---       _OLED_Set_Pos
      010019B5H   CODE     ---       _OLED_ShowChar
      010017AAH   CODE     ---       _OLED_ShowNum
      01001A3FH   CODE     ---       _OLED_ShowString
      01001CD9H   CODE     ---       _OLED_WR_Byte
      0100090FH   CODE     ---       _os_create_task
      01000998H   CODE     ---       _os_delete_task
      01000A21H   CODE     ---       _os_send_signal
      01000A48H   CODE     ---       _OS_WAIT
      01000A48H   CODE     ---       _OS_WAIT1
      01000A48H   CODE     ---       _os_wait2
      01001920H   CODE     ---       _P8563_RcvStr
      01001D29H   CODE     ---       _P8563_SendStr
      01001D52H   CODE     ---       _Read_conversion
      01001D46H   CODE     ---       _send_byte
      0100000EH   CODE     ---       _send_string
      01001A82H   CODE     ---       _SendByte
      01001B2AH   CODE     ---       _Start_conversion
      01001C1AH   CODE     ---       _Write_IIC_Byte
      01001D5DH   CODE     ---       _Write_IIC_Command
      01001D68H   CODE     ---       _Write_IIC_Data
*SFR* 000000D0H.6 DATA     BIT       AC
*SFR* 000000E0H   DATA     BYTE      ACC
      00000020H.6 BIT      BIT       ack
      01001C6CH   CODE     ---       Ack_I2c
      010014DAH   CODE     ---       ADCTask
*SFR* 000000F0H   DATA     BYTE      B
*SFR* 00000080H   DATA     BIT       beep
      0100132DH   CODE     ---       BEEPTask
      0000000EH   DATA     BYTE      cut_pos
*SFR* 000000D0H.7 DATA     BIT       CY
      01001D3DH   CODE     ---       Delay10us
*SFR* 00000083H   DATA     BYTE      DPH
*SFR* 00000082H   DATA     BYTE      DPL
*SFR* 000000A8H.7 DATA     BIT       EA
*SFR* 000000A8H.4 DATA     BIT       ES
*SFR* 000000A8H.1 DATA     BIT       ET0
*SFR* 000000A8H.3 DATA     BIT       ET1
*SFR* 000000A8H   DATA     BIT       EX0
LX51 LINKER/LOCATER V4.41                                                             12/29/2020  21:56:30  PAGE 9


*SFR* 000000A8H.2 DATA     BIT       EX1
*SFR* 000000D0H.5 DATA     BIT       F0
      01001D8DH   CONST    ---       F6x8
      01001B88H   CODE     ---       I2cReadByte
      01001D1AH   CODE     ---       I2cStart
      01001D73H   CODE     ---       I2cStop
*SFR* 000000A8H   DATA     BYTE      IE
*SFR* 00000088H.1 DATA     BIT       IE0
*SFR* 00000088H.3 DATA     BIT       IE1
      01001D7DH   CODE     ---       IIC_Start
      01001D86H   CODE     ---       IIC_Stop
      01001D05H   CODE     ---       IIC_Wait_Ack
*SFR* 000000B0H.2 DATA     BIT       INT0
*SFR* 000000B0H.3 DATA     BIT       INT1
*SFR* 000000B8H   DATA     BYTE      IP
*SFR* 00000088H   DATA     BIT       IT0
*SFR* 00000088H.2 DATA     BIT       IT1
      00000017H   DATA     ---       key_buf
      010016A2H   CODE     ---       KeyDown
      01000D23H   CODE     ---       KeyTask
*SFR* 000000A0H   DATA     BIT       led0
*SFR* 000000A0H.1 DATA     BIT       led1
      010008D2H   CODE     ---       MAIN
      01001415H   CODE     ---       MainTask
      02000023H   XDATA    BYTE      mark
      01001196H   CODE     ---       NumSetTask
      01001B5BH   CODE     ---       OLED_Clear
*DEL*:00000000H   CODE     ---       OLED_Display_Off
*DEL*:00000000H   CODE     ---       OLED_Display_On
      01001727H   CODE     ---       OLED_Init
*DEL*:00000000H   CODE     ---       OLED_On
*SFR* 00000080H.4 DATA     BIT       OLED_SCL
*SFR* 00000080H.5 DATA     BIT       OLED_SDIN
      010003E6H   CODE     ---       OLEDTask
      01000818H   CODE     ---       OS_SWITCH_TASK
*SFR* 000000D0H.2 DATA     BIT       OV
*SFR* 000000D0H   DATA     BIT       P
*SFR* 00000080H   DATA     BYTE      P0
*SFR* 00000090H   DATA     BYTE      P1
*SFR* 000000A0H   DATA     BYTE      P2
*SFR* 000000B0H   DATA     BYTE      P3
*SFR* 00000087H   DATA     BYTE      PCON
      02000008H   XDATA    CHAR      pos_i
      02000011H   XDATA    ---       pos_x
      0200001AH   XDATA    ---       pos_y
*SFR* 000000B8H.4 DATA     BIT       PS
*SFR* 000000D0H   DATA     BYTE      PSW
*SFR* 000000B8H.1 DATA     BIT       PT0
*SFR* 000000B8H.3 DATA     BIT       PT1
*SFR* 000000B8H   DATA     BIT       PX0
*SFR* 000000B8H.2 DATA     BIT       PX1
*SFR* 00000098H.2 DATA     BIT       RB8
      01001BD4H   CODE     ---       RcvByte
*SFR* 000000B0H.7 DATA     BIT       RD
*SFR* 00000098H.4 DATA     BIT       REN
*SFR* 00000098H   DATA     BIT       RI
      02000010H   XDATA    CHAR      ride_flag
*SFR* 000000D0H.3 DATA     BIT       RS0
*SFR* 000000D0H.4 DATA     BIT       RS1
      02000051H   XDATA    BYTE      run_mark
      0200004AH   XDATA    BYTE      run_state
*SFR* 000000B0H   DATA     BIT       RXD
*SFR* 00000099H   DATA     BYTE      SBUF
*SFR* 00000080H.4 DATA     BIT       SCL
*SFR* 00000080H.4 DATA     BIT       SCL1
LX51 LINKER/LOCATER V4.41                                                             12/29/2020  21:56:30  PAGE 10


*SFR* 00000098H   DATA     BYTE      SCON
*SFR* 00000080H.5 DATA     BIT       SDA
*SFR* 00000080H.5 DATA     BIT       SDA1
      02000049H   XDATA    BYTE      set_mark
*SFR* 00000098H.7 DATA     BIT       SM0
*SFR* 00000098H.6 DATA     BIT       SM1
*SFR* 00000098H.5 DATA     BIT       SM2
*SFR* 00000081H   DATA     BYTE      SP
      01001CB2H   CODE     ---       Start_I2c
      01001CC8H   CODE     ---       Stop_I2c
*SFR* 000000B0H.4 DATA     BIT       T0
*SFR* 000000B0H.5 DATA     BIT       T1
*SFR* 00000098H.3 DATA     BIT       TB8
*SFR* 00000088H   DATA     BYTE      TCON
      0200004DH   XDATA    INT       temp_max
      02000000H   XDATA    ---       temp_max_buf
      0200004BH   XDATA    INT       temp_min
      0200005CH   XDATA    ---       temp_min_buf
*SFR* 00000088H.5 DATA     BIT       TF0
*SFR* 00000088H.7 DATA     BIT       TF1
*SFR* 0000008CH   DATA     BYTE      TH0
*SFR* 0000008DH   DATA     BYTE      TH1
*SFR* 00000098H.1 DATA     BIT       TI
      00000010H   DATA     ---       time_cut
      01001871H   CODE     ---       TimeTask
*SFR* 0000008AH   DATA     BYTE      TL0
*SFR* 0000008BH   DATA     BYTE      TL1
*SFR* 00000089H   DATA     BYTE      TMOD
*SFR* 00000088H.4 DATA     BIT       TR0
*SFR* 00000088H.6 DATA     BIT       TR1
*SFR* 000000B0H.1 DATA     BIT       TXD
      01000AA7H   CODE     ---       UARTTask
      02000009H   XDATA    ---       uca_rd_time_dat
      02000053H   XDATA    ---       uca_send_time_dat
      02000024H   XDATA    ---       uca_wr_time_dat
      0200004FH   XDATA    INT       ui_convert_dat
      02000052H   XDATA    BYTE      ui_mark
      01001C9CH   CODE     ---       usart_init
      010018CAH   CODE     ---       Usart_Rx
      0200002BH   XDATA    ---       USART_RX_BUF
      00000016H   DATA     BYTE      USART_RX_STA
*SFR* 000000B0H.6 DATA     BIT       WR



SYMBOL TABLE OF MODULE:  .\Objects\temp_show (MAIN)

      VALUE       REP       CLASS    TYPE      SYMBOL NAME
      ====================================================
      ---         MODULE    ---      ---       MAIN
      0200005CH   PUBLIC    XDATA    ---       temp_min_buf
      02000053H   PUBLIC    XDATA    ---       uca_send_time_dat
      02000052H   PUBLIC    XDATA    BYTE      ui_mark
      00000017H   PUBLIC    DATA     ---       key_buf
      00000016H   PUBLIC    DATA     BYTE      USART_RX_STA
      02000051H   PUBLIC    XDATA    BYTE      run_mark
      0200004FH   PUBLIC    XDATA    INT       ui_convert_dat
      0200004DH   PUBLIC    XDATA    INT       temp_max
      00000010H   PUBLIC    DATA     ---       time_cut
      0200004BH   PUBLIC    XDATA    INT       temp_min
      0200004AH   PUBLIC    XDATA    BYTE      run_state
      02000049H   PUBLIC    XDATA    BYTE      set_mark
      0200002BH   PUBLIC    XDATA    ---       USART_RX_BUF
      02000024H   PUBLIC    XDATA    ---       uca_wr_time_dat
      02000023H   PUBLIC    XDATA    BYTE      mark
LX51 LINKER/LOCATER V4.41                                                             12/29/2020  21:56:30  PAGE 11


      0200001AH   PUBLIC    XDATA    ---       pos_y
      02000011H   PUBLIC    XDATA    ---       pos_x
      02000010H   PUBLIC    XDATA    CHAR      ride_flag
      02000009H   PUBLIC    XDATA    ---       uca_rd_time_dat
      02000008H   PUBLIC    XDATA    CHAR      pos_i
      0000000EH   PUBLIC    DATA     BYTE      cut_pos
      02000000H   PUBLIC    XDATA    ---       temp_max_buf
      01001196H   PUBLIC    CODE     ---       NumSetTask
      0100132DH   PUBLIC    CODE     ---       BEEPTask
      01001871H   PUBLIC    CODE     ---       TimeTask
      010003E6H   PUBLIC    CODE     ---       OLEDTask
      01000D23H   PUBLIC    CODE     ---       KeyTask
      01000AA7H   PUBLIC    CODE     ---       UARTTask
      010014DAH   PUBLIC    CODE     ---       ADCTask
      01001415H   PUBLIC    CODE     ---       MainTask
      01000003H   PUBLIC    CODE     ---       _delay_ms
      00000080H   SFRSYM    DATA     BYTE      P0
      00000090H   SFRSYM    DATA     BYTE      P1
      000000A0H   SFRSYM    DATA     BYTE      P2
      000000B0H   SFRSYM    DATA     BYTE      P3
      000000B0H.4 SFRSYM    DATA     BIT       T0
      000000D0H.6 SFRSYM    DATA     BIT       AC
      000000B0H.5 SFRSYM    DATA     BIT       T1
      000000A8H.7 SFRSYM    DATA     BIT       EA
      00000080H.5 SFRSYM    DATA     BIT       SDA1
      000000A8H   SFRSYM    DATA     BYTE      IE
      00000080H.4 SFRSYM    DATA     BIT       SCL1
      000000B0H.7 SFRSYM    DATA     BIT       RD
      000000A8H.4 SFRSYM    DATA     BIT       ES
      000000B8H   SFRSYM    DATA     BYTE      IP
      00000098H   SFRSYM    DATA     BIT       RI
      000000B0H.2 SFRSYM    DATA     BIT       INT0
      000000D0H.7 SFRSYM    DATA     BIT       CY
      00000098H.1 SFRSYM    DATA     BIT       TI
      000000B0H.3 SFRSYM    DATA     BIT       INT1
      00000080H   SFRSYM    DATA     BIT       beep
      000000B8H.4 SFRSYM    DATA     BIT       PS
      00000081H   SFRSYM    DATA     BYTE      SP
      000000D0H.2 SFRSYM    DATA     BIT       OV
      000000B0H.6 SFRSYM    DATA     BIT       WR
      00000099H   SFRSYM    DATA     BYTE      SBUF
      00000087H   SFRSYM    DATA     BYTE      PCON
      00000098H   SFRSYM    DATA     BYTE      SCON
      00000080H.5 SFRSYM    DATA     BIT       OLED_SDIN
      00000089H   SFRSYM    DATA     BYTE      TMOD
      00000088H   SFRSYM    DATA     BYTE      TCON
      00000088H.1 SFRSYM    DATA     BIT       IE0
      00000088H.3 SFRSYM    DATA     BIT       IE1
      000000F0H   SFRSYM    DATA     BYTE      B
      000000E0H   SFRSYM    DATA     BYTE      ACC
      000000A8H.1 SFRSYM    DATA     BIT       ET0
      000000A8H.3 SFRSYM    DATA     BIT       ET1
      00000088H.5 SFRSYM    DATA     BIT       TF0
      00000088H.7 SFRSYM    DATA     BIT       TF1
      00000098H.2 SFRSYM    DATA     BIT       RB8
      0000008CH   SFRSYM    DATA     BYTE      TH0
      000000A8H   SFRSYM    DATA     BIT       EX0
      00000088H   SFRSYM    DATA     BIT       IT0
      0000008DH   SFRSYM    DATA     BYTE      TH1
      00000098H.3 SFRSYM    DATA     BIT       TB8
      000000A8H.2 SFRSYM    DATA     BIT       EX1
      00000088H.2 SFRSYM    DATA     BIT       IT1
      000000D0H   SFRSYM    DATA     BIT       P
      00000098H.7 SFRSYM    DATA     BIT       SM0
      0000008AH   SFRSYM    DATA     BYTE      TL0
LX51 LINKER/LOCATER V4.41                                                             12/29/2020  21:56:30  PAGE 12


      00000098H.6 SFRSYM    DATA     BIT       SM1
      0000008BH   SFRSYM    DATA     BYTE      TL1
      00000098H.5 SFRSYM    DATA     BIT       SM2
      000000B8H.1 SFRSYM    DATA     BIT       PT0
      000000B8H.3 SFRSYM    DATA     BIT       PT1
      000000D0H.3 SFRSYM    DATA     BIT       RS0
      00000088H.4 SFRSYM    DATA     BIT       TR0
      000000D0H.4 SFRSYM    DATA     BIT       RS1
      00000088H.6 SFRSYM    DATA     BIT       TR1
      000000B8H   SFRSYM    DATA     BIT       PX0
      000000B8H.2 SFRSYM    DATA     BIT       PX1
      00000083H   SFRSYM    DATA     BYTE      DPH
      00000082H   SFRSYM    DATA     BYTE      DPL
      00000098H.4 SFRSYM    DATA     BIT       REN
      000000A0H   SFRSYM    DATA     BIT       led0
      000000A0H.1 SFRSYM    DATA     BIT       led1
      00000080H.4 SFRSYM    DATA     BIT       OLED_SCL
      000000B0H   SFRSYM    DATA     BIT       RXD
      000000B0H.1 SFRSYM    DATA     BIT       TXD
      000000D0H.5 SFRSYM    DATA     BIT       F0
      000000D0H   SFRSYM    DATA     BYTE      PSW
      0000000FH   SYMBOL    DATA     BYTE      key

      01000F8CH   BLOCK     CODE     ---       LVL=0
      ---         BLOCKEND  ---      ---       LVL=0

      01000003H   BLOCK     CODE     ---       LVL=0
      00000005H   SYMBOL    DATA     BYTE      ms
      01000003H   LINE      CODE     ---       #42
      01000005H   LINE      CODE     ---       #43
      01000005H   LINE      CODE     ---       #44
      ---         BLOCKEND  ---      ---       LVL=0

      01001415H   BLOCK     CODE     ---       LVL=0
      01001415H   BLOCK     CODE     NEAR LAB  LVL=1
      00000021H   SYMBOL    DATA     BYTE      j
      ---         BLOCKEND  ---      ---       LVL=1
      01001415H   LINE      CODE     ---       #53
      01001415H   LINE      CODE     ---       #56
      01001418H   LINE      CODE     ---       #57
      0100141BH   LINE      CODE     ---       #59
      0100141EH   LINE      CODE     ---       #60
      0100141EH   LINE      CODE     ---       #61
      0100142AH   LINE      CODE     ---       #62
      01001433H   LINE      CODE     ---       #63
      0100143DH   LINE      CODE     ---       #64
      0100143DH   LINE      CODE     ---       #65
      01001465H   LINE      CODE     ---       #66
      01001465H   LINE      CODE     ---       #67
      0100146AH   LINE      CODE     ---       #69
      01001474H   LINE      CODE     ---       #70
      01001474H   LINE      CODE     ---       #71
      0100149CH   LINE      CODE     ---       #72
      0100149CH   LINE      CODE     ---       #73
      010014A1H   LINE      CODE     ---       #76
      010014A6H   LINE      CODE     ---       #77
      010014ABH   LINE      CODE     ---       #78
      010014B0H   LINE      CODE     ---       #79
      010014B5H   LINE      CODE     ---       #80
      010014BAH   LINE      CODE     ---       #81
      010014BFH   LINE      CODE     ---       #82
      010014C4H   LINE      CODE     ---       #84
      010014C9H   LINE      CODE     ---       #85
      010014CBH   LINE      CODE     ---       #86
      ---         BLOCKEND  ---      ---       LVL=0
LX51 LINKER/LOCATER V4.41                                                             12/29/2020  21:56:30  PAGE 13



      010014DAH   BLOCK     CODE     ---       LVL=0
      010014DAH   BLOCK     CODE     NEAR LAB  LVL=1
      00000022H   SYMBOL    DATA     ---       uca_rd_dat
      00000024H   SYMBOL    DATA     FLOAT     dat
      ---         BLOCKEND  ---      ---       LVL=1
      010014DAH   LINE      CODE     ---       #94
      010014DAH   LINE      CODE     ---       #99
      010014DAH   LINE      CODE     ---       #100
      010014DAH   LINE      CODE     ---       #101
      010014DCH   LINE      CODE     ---       #104
      010014E5H   LINE      CODE     ---       #105
      010014EAH   LINE      CODE     ---       #106
      010014F7H   LINE      CODE     ---       #108
      0100150AH   LINE      CODE     ---       #109
      01001512H   LINE      CODE     ---       #111
      0100151CH   LINE      CODE     ---       #112
      01001528H   LINE      CODE     ---       #113
      01001539H   LINE      CODE     ---       #114
      01001539H   LINE      CODE     ---       #115
      0100153EH   LINE      CODE     ---       #116
      0100153EH   LINE      CODE     ---       #118
      01001566H   LINE      CODE     ---       #119
      0100156CH   LINE      CODE     ---       #120
      01001571H   LINE      CODE     ---       #121
      01001576H   LINE      CODE     ---       #122
      01001576H   LINE      CODE     ---       #123
      01001579H   LINE      CODE     ---       #124
      01001579H   LINE      CODE     ---       #125
      0100157CH   LINE      CODE     ---       #126
      01001581H   LINE      CODE     ---       #128
      01001584H   LINE      CODE     ---       #129
      ---         BLOCKEND  ---      ---       LVL=0

      01000AA7H   BLOCK     CODE     ---       LVL=0
      01000AA7H   BLOCK     CODE     NEAR LAB  LVL=1
      02000064H   SYMBOL    XDATA    ---       temp_send_buf
      0200006DH   SYMBOL    XDATA    BYTE      j
      ---         BLOCKEND  ---      ---       LVL=1
      01000AA7H   LINE      CODE     ---       #137
      01000AA7H   LINE      CODE     ---       #140
      01000AA7H   LINE      CODE     ---       #141
      01000AA7H   LINE      CODE     ---       #142
      01000AAFH   LINE      CODE     ---       #143
      01000AAFH   LINE      CODE     ---       #144
      01000AB2H   LINE      CODE     ---       #145
      01000ABDH   LINE      CODE     ---       #146
      01000ABDH   LINE      CODE     ---       #147
      01000AC2H   LINE      CODE     ---       #148
      01000AC2H   LINE      CODE     ---       #149
      01000ACBH   LINE      CODE     ---       #150
      01000ACBH   LINE      CODE     ---       #151
      01000AD6H   LINE      CODE     ---       #152
      01000AD6H   LINE      CODE     ---       #153
      01000AECH   LINE      CODE     ---       #154
      01000B00H   LINE      CODE     ---       #155
      01000B1AH   LINE      CODE     ---       #156
      01000B2CH   LINE      CODE     ---       #157
      01000B3BH   LINE      CODE     ---       #159
      01000B41H   LINE      CODE     ---       #160
      01000B47H   LINE      CODE     ---       #161
      01000B4BH   LINE      CODE     ---       #162
      01000B4DH   LINE      CODE     ---       #163
      01000B56H   LINE      CODE     ---       #164
      01000B56H   LINE      CODE     ---       #165
LX51 LINKER/LOCATER V4.41                                                             12/29/2020  21:56:30  PAGE 14


      01000B5EH   LINE      CODE     ---       #166
      01000B5EH   LINE      CODE     ---       #167
      01000B64H   LINE      CODE     ---       #168
      01000B6CH   LINE      CODE     ---       #169
      01000B73H   LINE      CODE     ---       #170
      01000B7BH   LINE      CODE     ---       #171
      01000B82H   LINE      CODE     ---       #172
      01000B8BH   LINE      CODE     ---       #173
      01000B8BH   LINE      CODE     ---       #174
      01000B8BH   LINE      CODE     ---       #175
      01000B96H   LINE      CODE     ---       #176
      01000B96H   LINE      CODE     ---       #177
      01000B9CH   LINE      CODE     ---       #178
      01000B9CH   LINE      CODE     ---       #179
      01000BA6H   LINE      CODE     ---       #180
      01000BB4H   LINE      CODE     ---       #181
      01000BB7H   LINE      CODE     ---       #182
      01000BB7H   LINE      CODE     ---       #183
      01000BBAH   LINE      CODE     ---       #185
      01000BC4H   LINE      CODE     ---       #186
      01000BD2H   LINE      CODE     ---       #187
      01000BD5H   LINE      CODE     ---       #188
      01000BD5H   LINE      CODE     ---       #189
      01000BD8H   LINE      CODE     ---       #190
      01000BD8H   LINE      CODE     ---       #191
      01000BE0H   LINE      CODE     ---       #192
      01000BE0H   LINE      CODE     ---       #193
      01000BE8H   LINE      CODE     ---       #194
      01000BF0H   LINE      CODE     ---       #196
      01000BF8H   LINE      CODE     ---       #197
      01000C00H   LINE      CODE     ---       #199
      01000C08H   LINE      CODE     ---       #200
      01000C10H   LINE      CODE     ---       #202
      01000C15H   LINE      CODE     ---       #203
      01000C15H   LINE      CODE     ---       #204
      01000C22H   LINE      CODE     ---       #205
      01000C27H   LINE      CODE     ---       #206
      01000C33H   LINE      CODE     ---       #207
      01000C33H   LINE      CODE     ---       #208
      01000C3EH   LINE      CODE     ---       #209
      01000C3EH   LINE      CODE     ---       #210
      01000C47H   LINE      CODE     ---       #211
      01000C47H   LINE      CODE     ---       #212
      01000C4CH   LINE      CODE     ---       #214
      01000C4EH   LINE      CODE     ---       #215
      01000C53H   LINE      CODE     ---       #216
      01000C53H   LINE      CODE     ---       #217
      01000C69H   LINE      CODE     ---       #218
      01000C69H   LINE      CODE     ---       #221
      01000C72H   LINE      CODE     ---       #222
      01000C72H   LINE      CODE     ---       #223
      01000C82H   LINE      CODE     ---       #224
      01000C84H   LINE      CODE     ---       #225
      01000C89H   LINE      CODE     ---       #226
      01000C89H   LINE      CODE     ---       #227
      01000CB0H   LINE      CODE     ---       #228
      01000CB0H   LINE      CODE     ---       #231
      01000CC0H   LINE      CODE     ---       #232
      01000CC0H   LINE      CODE     ---       #233
      01000CD0H   LINE      CODE     ---       #234
      01000CD0H   LINE      CODE     ---       #236
      01000CDFH   LINE      CODE     ---       #237
      01000CE2H   LINE      CODE     ---       #238
      01000CF3H   LINE      CODE     ---       #239
      01000CF6H   LINE      CODE     ---       #240
LX51 LINKER/LOCATER V4.41                                                             12/29/2020  21:56:30  PAGE 15


      01000CF6H   LINE      CODE     ---       #241
      01000CF6H   LINE      CODE     ---       #243
      01000CF6H   LINE      CODE     ---       #245
      01000CFBH   LINE      CODE     ---       #246
      01000CFEH   LINE      CODE     ---       #247
      ---         BLOCKEND  ---      ---       LVL=0

      01000D23H   BLOCK     CODE     ---       LVL=0
      01000D23H   BLOCK     CODE     NEAR LAB  LVL=1
      0000003BH   SYMBOL    DATA     BYTE      num
      ---         BLOCKEND  ---      ---       LVL=1
      01000D23H   LINE      CODE     ---       #255
      01000D23H   LINE      CODE     ---       #257
      01000D26H   LINE      CODE     ---       #258
      01000D26H   LINE      CODE     ---       #259
      01000D26H   LINE      CODE     ---       #260
      01000D2BH   LINE      CODE     ---       #261
      01000D30H   LINE      CODE     ---       #262
      01000D30H   LINE      CODE     ---       #263
      01000D3FH   LINE      CODE     ---       #264
      01000D47H   LINE      CODE     ---       #265
      01000D47H   LINE      CODE     ---       #266
      01000D4DH   LINE      CODE     ---       #267
      01000D51H   LINE      CODE     ---       #268
      01000D5AH   LINE      CODE     ---       #269
      01000D5AH   LINE      CODE     ---       #270
      01000D5FH   LINE      CODE     ---       #271
      01000D5FH   LINE      CODE     ---       #272
      01000D6DH   LINE      CODE     ---       #273
      01000D71H   LINE      CODE     ---       #274
      01000D81H   LINE      CODE     ---       #275
      01000D81H   LINE      CODE     ---       #276
      01000D87H   LINE      CODE     ---       #277
      01000D87H   LINE      CODE     ---       #279
      01000D90H   LINE      CODE     ---       #280
      01000D90H   LINE      CODE     ---       #281
      01000D96H   LINE      CODE     ---       #282
      01000DA5H   LINE      CODE     ---       #283
      01000DAAH   LINE      CODE     ---       #284
      01000DAAH   LINE      CODE     ---       #285
      01000DB8H   LINE      CODE     ---       #286
      01000DBCH   LINE      CODE     ---       #287
      01000DCCH   LINE      CODE     ---       #288
      01000DCCH   LINE      CODE     ---       #289
      01000DD2H   LINE      CODE     ---       #290
      01000DD2H   LINE      CODE     ---       #291
      01000DDAH   LINE      CODE     ---       #292
      01000DDAH   LINE      CODE     ---       #293
      01000DE2H   LINE      CODE     ---       #294
      01000DE2H   LINE      CODE     ---       #295
      01000DE8H   LINE      CODE     ---       #296
      01000DF3H   LINE      CODE     ---       #297
      01000DF6H   LINE      CODE     ---       #298
      01000DF6H   LINE      CODE     ---       #299
      01000DFEH   LINE      CODE     ---       #300
      01000DFEH   LINE      CODE     ---       #301
      01000E06H   LINE      CODE     ---       #302
      01000E06H   LINE      CODE     ---       #303
      01000E0CH   LINE      CODE     ---       #304
      01000E17H   LINE      CODE     ---       #305
      01000E19H   LINE      CODE     ---       #306
      01000E19H   LINE      CODE     ---       #307
      01000E1CH   LINE      CODE     ---       #309
      01000E22H   LINE      CODE     ---       #310
      01000E22H   LINE      CODE     ---       #311
LX51 LINKER/LOCATER V4.41                                                             12/29/2020  21:56:30  PAGE 16


      01000E29H   LINE      CODE     ---       #312
      01000E29H   LINE      CODE     ---       #313
      01000E2CH   LINE      CODE     ---       #314
      01000E2CH   LINE      CODE     ---       #315
      01000E32H   LINE      CODE     ---       #316
      01000E32H   LINE      CODE     ---       #317
      01000E34H   LINE      CODE     ---       #318
      01000E37H   LINE      CODE     ---       #319
      01000E37H   LINE      CODE     ---       #320
      01000E3EH   LINE      CODE     ---       #321
      01000E3EH   LINE      CODE     ---       #322
      01000E3EH   LINE      CODE     ---       #323
      01000E47H   LINE      CODE     ---       #324
      01000E47H   LINE      CODE     ---       #325
      01000E4EH   LINE      CODE     ---       #326
      01000E4EH   LINE      CODE     ---       #327
      01000E51H   LINE      CODE     ---       #328
      01000E51H   LINE      CODE     ---       #329
      01000E57H   LINE      CODE     ---       #330
      01000E57H   LINE      CODE     ---       #331
      01000E59H   LINE      CODE     ---       #332
      01000E5BH   LINE      CODE     ---       #333
      01000E5BH   LINE      CODE     ---       #334
      01000E62H   LINE      CODE     ---       #335
      01000E62H   LINE      CODE     ---       #336
      01000E62H   LINE      CODE     ---       #337
      01000E6BH   LINE      CODE     ---       #338
      01000E6BH   LINE      CODE     ---       #339
      01000E72H   LINE      CODE     ---       #340
      01000E72H   LINE      CODE     ---       #341
      01000E75H   LINE      CODE     ---       #342
      01000E75H   LINE      CODE     ---       #343
      01000E7BH   LINE      CODE     ---       #344
      01000E7BH   LINE      CODE     ---       #345
      01000E7DH   LINE      CODE     ---       #346
      01000E7FH   LINE      CODE     ---       #347
      01000E7FH   LINE      CODE     ---       #348
      01000E86H   LINE      CODE     ---       #349
      01000E86H   LINE      CODE     ---       #350
      01000E86H   LINE      CODE     ---       #351
      01000E8FH   LINE      CODE     ---       #352
      01000E8FH   LINE      CODE     ---       #353
      01000E96H   LINE      CODE     ---       #354
      01000E96H   LINE      CODE     ---       #355
      01000E99H   LINE      CODE     ---       #356
      01000E99H   LINE      CODE     ---       #357
      01000E9FH   LINE      CODE     ---       #358
      01000E9FH   LINE      CODE     ---       #359
      01000EA1H   LINE      CODE     ---       #360
      01000EA3H   LINE      CODE     ---       #361
      01000EA3H   LINE      CODE     ---       #362
      01000EAAH   LINE      CODE     ---       #363
      01000EAAH   LINE      CODE     ---       #364
      01000EAAH   LINE      CODE     ---       #365
      01000EB3H   LINE      CODE     ---       #366
      01000EB3H   LINE      CODE     ---       #367
      01000EBAH   LINE      CODE     ---       #368
      01000EBAH   LINE      CODE     ---       #369
      01000EBDH   LINE      CODE     ---       #370
      01000EBDH   LINE      CODE     ---       #371
      01000EC3H   LINE      CODE     ---       #372
      01000EC3H   LINE      CODE     ---       #373
      01000EC5H   LINE      CODE     ---       #374
      01000EC7H   LINE      CODE     ---       #375
      01000EC7H   LINE      CODE     ---       #376
LX51 LINKER/LOCATER V4.41                                                             12/29/2020  21:56:30  PAGE 17


      01000ECEH   LINE      CODE     ---       #377
      01000ECEH   LINE      CODE     ---       #378
      01000ECEH   LINE      CODE     ---       #379
      01000ED7H   LINE      CODE     ---       #380
      01000ED7H   LINE      CODE     ---       #381
      01000EDEH   LINE      CODE     ---       #382
      01000EDEH   LINE      CODE     ---       #383
      01000EE1H   LINE      CODE     ---       #384
      01000EE1H   LINE      CODE     ---       #385
      01000EE7H   LINE      CODE     ---       #386
      01000EE7H   LINE      CODE     ---       #387
      01000EE9H   LINE      CODE     ---       #388
      01000EEBH   LINE      CODE     ---       #389
      01000EEBH   LINE      CODE     ---       #390
      01000EF2H   LINE      CODE     ---       #391
      01000EF2H   LINE      CODE     ---       #392
      01000EF2H   LINE      CODE     ---       #393
      01000EFBH   LINE      CODE     ---       #394
      01000EFBH   LINE      CODE     ---       #395
      01000F02H   LINE      CODE     ---       #396
      01000F02H   LINE      CODE     ---       #397
      01000F05H   LINE      CODE     ---       #398
      01000F05H   LINE      CODE     ---       #399
      01000F0BH   LINE      CODE     ---       #400
      01000F0BH   LINE      CODE     ---       #401
      01000F0DH   LINE      CODE     ---       #402
      01000F0FH   LINE      CODE     ---       #403
      01000F0FH   LINE      CODE     ---       #404
      01000F16H   LINE      CODE     ---       #405
      01000F16H   LINE      CODE     ---       #406
      01000F16H   LINE      CODE     ---       #407
      01000F1EH   LINE      CODE     ---       #408
      01000F1EH   LINE      CODE     ---       #409
      01000F25H   LINE      CODE     ---       #410
      01000F25H   LINE      CODE     ---       #411
      01000F28H   LINE      CODE     ---       #412
      01000F28H   LINE      CODE     ---       #413
      01000F2EH   LINE      CODE     ---       #414
      01000F2EH   LINE      CODE     ---       #415
      01000F30H   LINE      CODE     ---       #416
      01000F32H   LINE      CODE     ---       #417
      01000F32H   LINE      CODE     ---       #418
      01000F39H   LINE      CODE     ---       #419
      01000F39H   LINE      CODE     ---       #420
      01000F39H   LINE      CODE     ---       #421
      01000F41H   LINE      CODE     ---       #422
      01000F41H   LINE      CODE     ---       #423
      01000F48H   LINE      CODE     ---       #424
      01000F48H   LINE      CODE     ---       #425
      01000F4BH   LINE      CODE     ---       #426
      01000F4BH   LINE      CODE     ---       #427
      01000F51H   LINE      CODE     ---       #428
      01000F51H   LINE      CODE     ---       #429
      01000F53H   LINE      CODE     ---       #430
      01000F55H   LINE      CODE     ---       #431
      01000F55H   LINE      CODE     ---       #432
      01000F5CH   LINE      CODE     ---       #433
      01000F5CH   LINE      CODE     ---       #434
      01000F5CH   LINE      CODE     ---       #435
      01000F5EH   LINE      CODE     ---       #436
      01000F64H   LINE      CODE     ---       #437
      01000F64H   LINE      CODE     ---       #438
      01000F6BH   LINE      CODE     ---       #439
      01000F6BH   LINE      CODE     ---       #440
      01000F6EH   LINE      CODE     ---       #441
LX51 LINKER/LOCATER V4.41                                                             12/29/2020  21:56:30  PAGE 18


      01000F6EH   LINE      CODE     ---       #442
      01000F74H   LINE      CODE     ---       #443
      01000F74H   LINE      CODE     ---       #444
      01000F76H   LINE      CODE     ---       #445
      01000F78H   LINE      CODE     ---       #446
      01000F78H   LINE      CODE     ---       #447
      01000F7FH   LINE      CODE     ---       #448
      01000F7FH   LINE      CODE     ---       #449
      01000F84H   LINE      CODE     ---       #450
      01000F84H   LINE      CODE     ---       #451
      01000F89H   LINE      CODE     ---       #452
      ---         BLOCKEND  ---      ---       LVL=0

      010003E6H   BLOCK     CODE     ---       LVL=0
      010003E6H   BLOCK     CODE     NEAR LAB  LVL=1
      0000003EH   SYMBOL    DATA     CHAR      event
      0000003FH   SYMBOL    DATA     FLOAT     cov_f
      ---         BLOCKEND  ---      ---       LVL=1
      010003E6H   LINE      CODE     ---       #461
      010003E6H   LINE      CODE     ---       #466
      010003E6H   LINE      CODE     ---       #467
      010003E6H   LINE      CODE     ---       #468
      010003E9H   LINE      CODE     ---       #469
      010003EDH   LINE      CODE     ---       #470
      010003EDH   LINE      CODE     ---       #472
      010003FEH   LINE      CODE     ---       #473
      0100040EH   LINE      CODE     ---       #474
      01000417H   LINE      CODE     ---       #475
      01000417H   LINE      CODE     ---       #476
      0100041EH   LINE      CODE     ---       #477
      01000426H   LINE      CODE     ---       #478
      0100042FH   LINE      CODE     ---       #479
      01000435H   LINE      CODE     ---       #481
      01000443H   LINE      CODE     ---       #482
      01000449H   LINE      CODE     ---       #483
      01000449H   LINE      CODE     ---       #484
      01000449H   LINE      CODE     ---       #485
      01000451H   LINE      CODE     ---       #486
      01000451H   LINE      CODE     ---       #487
      0100045EH   LINE      CODE     ---       #488
      0100045EH   LINE      CODE     ---       #489
      0100045EH   LINE      CODE     ---       #490
      01000461H   LINE      CODE     ---       #491
      01000461H   LINE      CODE     ---       #492
      01000461H   LINE      CODE     ---       #493
      01000463H   LINE      CODE     ---       #494
      01000463H   LINE      CODE     ---       #495
      01000463H   LINE      CODE     ---       #496
      01000469H   LINE      CODE     ---       #497
      0100046CH   LINE      CODE     ---       #498
      0100046CH   LINE      CODE     ---       #499
      01000476H   LINE      CODE     ---       #500
      01000476H   LINE      CODE     ---       #502
      0100047BH   LINE      CODE     ---       #503
      0100047BH   LINE      CODE     ---       #504
      0100047BH   LINE      CODE     ---       #505
      0100047EH   LINE      CODE     ---       #506
      01000480H   LINE      CODE     ---       #508
      01000480H   LINE      CODE     ---       #509
      01000480H   LINE      CODE     ---       #510
      0100048DH   LINE      CODE     ---       #511
      0100048DH   LINE      CODE     ---       #513
      01000492H   LINE      CODE     ---       #514
      01000492H   LINE      CODE     ---       #515
      01000492H   LINE      CODE     ---       #516
LX51 LINKER/LOCATER V4.41                                                             12/29/2020  21:56:30  PAGE 19


      01000495H   LINE      CODE     ---       #517
      01000497H   LINE      CODE     ---       #519
      01000497H   LINE      CODE     ---       #520
      01000497H   LINE      CODE     ---       #521
      0100049AH   LINE      CODE     ---       #522
      0100049AH   LINE      CODE     ---       #523
      0100049AH   LINE      CODE     ---       #524
      0100049CH   LINE      CODE     ---       #525
      0100049CH   LINE      CODE     ---       #526
      0100049CH   LINE      CODE     ---       #527
      010004A1H   LINE      CODE     ---       #528
      010004A1H   LINE      CODE     ---       #529
      010004A3H   LINE      CODE     ---       #530
      010004A6H   LINE      CODE     ---       #531
      010004ACH   LINE      CODE     ---       #532
      010004B6H   LINE      CODE     ---       #533
      010004B6H   LINE      CODE     ---       #534
      010004B6H   LINE      CODE     ---       #535
      010004B9H   LINE      CODE     ---       #536
      010004B9H   LINE      CODE     ---       #537
      010004B9H   LINE      CODE     ---       #538
      010004BBH   LINE      CODE     ---       #540
      010004BBH   LINE      CODE     ---       #541
      010004BBH   LINE      CODE     ---       #542
      010004C1H   LINE      CODE     ---       #543
      010004C4H   LINE      CODE     ---       #544
      010004C4H   LINE      CODE     ---       #545
      010004CEH   LINE      CODE     ---       #546
      010004CEH   LINE      CODE     ---       #547
      010004D1H   LINE      CODE     ---       #548
      010004D8H   LINE      CODE     ---       #549
      010004DBH   LINE      CODE     ---       #550
      010004E2H   LINE      CODE     ---       #551
      010004E7H   LINE      CODE     ---       #552
      010004E7H   LINE      CODE     ---       #553
      010004E7H   LINE      CODE     ---       #554
      010004EAH   LINE      CODE     ---       #555
      010004ECH   LINE      CODE     ---       #557
      010004ECH   LINE      CODE     ---       #558
      010004ECH   LINE      CODE     ---       #559
      010004F9H   LINE      CODE     ---       #560
      010004F9H   LINE      CODE     ---       #562
      010004FEH   LINE      CODE     ---       #563
      010004FEH   LINE      CODE     ---       #564
      010004FEH   LINE      CODE     ---       #565
      01000501H   LINE      CODE     ---       #566
      01000503H   LINE      CODE     ---       #568
      01000503H   LINE      CODE     ---       #569
      01000503H   LINE      CODE     ---       #570
      01000510H   LINE      CODE     ---       #571
      01000510H   LINE      CODE     ---       #572
      01000510H   LINE      CODE     ---       #573
      01000510H   LINE      CODE     ---       #575
      01000518H   LINE      CODE     ---       #577
      0100051DH   LINE      CODE     ---       #578
      01000520H   LINE      CODE     ---       #579
      01000523H   LINE      CODE     ---       #581
      01000527H   LINE      CODE     ---       #582
      01000527H   LINE      CODE     ---       #584
      01000533H   LINE      CODE     ---       #585
      0100053FH   LINE      CODE     ---       #587
      01000550H   LINE      CODE     ---       #588
      01000560H   LINE      CODE     ---       #589
      0100056BH   LINE      CODE     ---       #590
      0100056BH   LINE      CODE     ---       #606
LX51 LINKER/LOCATER V4.41                                                             12/29/2020  21:56:30  PAGE 20


      01000573H   LINE      CODE     ---       #607
      01000583H   LINE      CODE     ---       #608
      01000593H   LINE      CODE     ---       #611
      0100059BH   LINE      CODE     ---       #612
      0100059BH   LINE      CODE     ---       #613
      010005A3H   LINE      CODE     ---       #614
      010005ABH   LINE      CODE     ---       #615
      010005ADH   LINE      CODE     ---       #617
      010005ADH   LINE      CODE     ---       #618
      010005B5H   LINE      CODE     ---       #619
      010005C5H   LINE      CODE     ---       #620
      010005C5H   LINE      CODE     ---       #622
      010005CDH   LINE      CODE     ---       #623
      010005CDH   LINE      CODE     ---       #624
      010005D9H   LINE      CODE     ---       #625
      010005E1H   LINE      CODE     ---       #626
      010005E3H   LINE      CODE     ---       #628
      010005E3H   LINE      CODE     ---       #629
      010005EFH   LINE      CODE     ---       #630
      010005FFH   LINE      CODE     ---       #631
      010005FFH   LINE      CODE     ---       #634
      01000613H   LINE      CODE     ---       #635
      0100061DH   LINE      CODE     ---       #636
      01000627H   LINE      CODE     ---       #638
      0100062CH   LINE      CODE     ---       #640
      01000639H   LINE      CODE     ---       #641
      01000643H   LINE      CODE     ---       #642
      0100064CH   LINE      CODE     ---       #643
      01000655H   LINE      CODE     ---       #645
      01000662H   LINE      CODE     ---       #646
      01000667H   LINE      CODE     ---       #648
      0100066DH   LINE      CODE     ---       #649
      0100067FH   LINE      CODE     ---       #650
      01000687H   LINE      CODE     ---       #651
      01000696H   LINE      CODE     ---       #652
      01000699H   LINE      CODE     ---       #653
      01000699H   LINE      CODE     ---       #654
      ---         BLOCKEND  ---      ---       LVL=0

      01001871H   BLOCK     CODE     ---       LVL=0
      01001871H   LINE      CODE     ---       #662
      01001871H   LINE      CODE     ---       #664
      01001871H   LINE      CODE     ---       #665
      01001871H   LINE      CODE     ---       #667
      0100187FH   LINE      CODE     ---       #669
      01001886H   LINE      CODE     ---       #670
      01001889H   LINE      CODE     ---       #671
      01001890H   LINE      CODE     ---       #672
      01001893H   LINE      CODE     ---       #673
      010018A0H   LINE      CODE     ---       #674
      010018A3H   LINE      CODE     ---       #675
      010018A9H   LINE      CODE     ---       #676
      010018ADH   LINE      CODE     ---       #677
      010018B2H   LINE      CODE     ---       #679
      010018B2H   LINE      CODE     ---       #680
      010018B5H   LINE      CODE     ---       #681
      010018B5H   LINE      CODE     ---       #682
      010018B8H   LINE      CODE     ---       #683
      010018BDH   LINE      CODE     ---       #684
      010018BFH   LINE      CODE     ---       #685
      ---         BLOCKEND  ---      ---       LVL=0

      0100132DH   BLOCK     CODE     ---       LVL=0
      0100132DH   BLOCK     CODE     NEAR LAB  LVL=1
      0000005CH   SYMBOL    DATA     BYTE      time_dat
LX51 LINKER/LOCATER V4.41                                                             12/29/2020  21:56:30  PAGE 21


      00000007H   SYMBOL    DATA     BYTE      event1
      0000005DH   SYMBOL    DATA     BYTE      beep_mark
      ---         BLOCKEND  ---      ---       LVL=1
      0100132DH   LINE      CODE     ---       #693
      0100132DH   LINE      CODE     ---       #696
      0100132DH   LINE      CODE     ---       #697
      0100132DH   LINE      CODE     ---       #698
      01001334H   LINE      CODE     ---       #699
      0100133FH   LINE      CODE     ---       #700
      0100133FH   LINE      CODE     ---       #701
      0100133FH   LINE      CODE     ---       #702
      01001353H   LINE      CODE     ---       #703
      01001353H   LINE      CODE     ---       #704
      01001356H   LINE      CODE     ---       #705
      01001358H   LINE      CODE     ---       #706
      0100135CH   LINE      CODE     ---       #707
      01001361H   LINE      CODE     ---       #708
      01001363H   LINE      CODE     ---       #709
      01001372H   LINE      CODE     ---       #710
      01001372H   LINE      CODE     ---       #711
      01001375H   LINE      CODE     ---       #712
      01001377H   LINE      CODE     ---       #713
      0100137DH   LINE      CODE     ---       #714
      01001382H   LINE      CODE     ---       #715
      01001384H   LINE      CODE     ---       #717
      01001384H   LINE      CODE     ---       #718
      01001387H   LINE      CODE     ---       #719
      01001389H   LINE      CODE     ---       #720
      0100138DH   LINE      CODE     ---       #721
      01001391H   LINE      CODE     ---       #722
      01001391H   LINE      CODE     ---       #723
      01001391H   LINE      CODE     ---       #725
      01001396H   LINE      CODE     ---       #726
      0100139AH   LINE      CODE     ---       #727
      0100139FH   LINE      CODE     ---       #728
      010013A3H   LINE      CODE     ---       #730
      010013A5H   LINE      CODE     ---       #733
      010013B8H   LINE      CODE     ---       #734
      010013C6H   LINE      CODE     ---       #735
      010013C6H   LINE      CODE     ---       #736
      010013CCH   LINE      CODE     ---       #737
      010013CFH   LINE      CODE     ---       #738
      010013D1H   LINE      CODE     ---       #739
      010013DFH   LINE      CODE     ---       #740
      010013DFH   LINE      CODE     ---       #741
      010013E5H   LINE      CODE     ---       #742
      010013E8H   LINE      CODE     ---       #743
      010013EAH   LINE      CODE     ---       #744
      010013F7H   LINE      CODE     ---       #745
      010013F7H   LINE      CODE     ---       #746
      010013FDH   LINE      CODE     ---       #747
      01001403H   LINE      CODE     ---       #748
      01001406H   LINE      CODE     ---       #750
      01001406H   LINE      CODE     ---       #751
      0100140CH   LINE      CODE     ---       #752
      01001412H   LINE      CODE     ---       #753
      01001412H   LINE      CODE     ---       #754
      ---         BLOCKEND  ---      ---       LVL=0

      01001196H   BLOCK     CODE     ---       LVL=0
      01001196H   BLOCK     CODE     NEAR LAB  LVL=1
      00000007H   SYMBOL    DATA     CHAR      event1
      00000007H   SYMBOL    DATA     CHAR      x
      ---         BLOCKEND  ---      ---       LVL=1
      01001196H   LINE      CODE     ---       #763
LX51 LINKER/LOCATER V4.41                                                             12/29/2020  21:56:30  PAGE 22


      01001196H   LINE      CODE     ---       #767
      01001196H   LINE      CODE     ---       #768
      01001196H   LINE      CODE     ---       #769
      0100119CH   LINE      CODE     ---       #770
      0100119CH   LINE      CODE     ---       #771
      0100119CH   LINE      CODE     ---       #772
      0100119CH   LINE      CODE     ---       #773
      010011A6H   LINE      CODE     ---       #774
      010011A6H   LINE      CODE     ---       #775
      010011A6H   LINE      CODE     ---       #778
      010011ADH   LINE      CODE     ---       #780
      010011B4H   LINE      CODE     ---       #781
      010011B4H   LINE      CODE     ---       #782
      010011BCH   LINE      CODE     ---       #783
      010011BCH   LINE      CODE     ---       #785
      010011C8H   LINE      CODE     ---       #786
      010011C8H   LINE      CODE     ---       #787
      010011D1H   LINE      CODE     ---       #788
      010011D1H   LINE      CODE     ---       #789
      010011F3H   LINE      CODE     ---       #790
      01001208H   LINE      CODE     ---       #791
      0100120DH   LINE      CODE     ---       #792
      01001212H   LINE      CODE     ---       #793
      01001212H   LINE      CODE     ---       #794
      01001215H   LINE      CODE     ---       #797
      0100121DH   LINE      CODE     ---       #798
      0100121DH   LINE      CODE     ---       #799
      01001226H   LINE      CODE     ---       #800
      01001226H   LINE      CODE     ---       #801
      01001230H   LINE      CODE     ---       #803
      0100123CH   LINE      CODE     ---       #804
      01001241H   LINE      CODE     ---       #805
      01001241H   LINE      CODE     ---       #806
      01001241H   LINE      CODE     ---       #807
      01001241H   LINE      CODE     ---       #808
      0100124BH   LINE      CODE     ---       #809
      0100124BH   LINE      CODE     ---       #810
      01001254H   LINE      CODE     ---       #811
      01001254H   LINE      CODE     ---       #812
      0100125EH   LINE      CODE     ---       #814
      0100126CH   LINE      CODE     ---       #815
      0100126EH   LINE      CODE     ---       #816
      0100126EH   LINE      CODE     ---       #817
      0100126EH   LINE      CODE     ---       #818
      01001270H   LINE      CODE     ---       #821
      01001278H   LINE      CODE     ---       #822
      01001278H   LINE      CODE     ---       #823
      0100127EH   LINE      CODE     ---       #824
      0100127EH   LINE      CODE     ---       #826
      01001289H   LINE      CODE     ---       #828
      01001294H   LINE      CODE     ---       #829
      0100129AH   LINE      CODE     ---       #830
      010012A5H   LINE      CODE     ---       #831
      010012A8H   LINE      CODE     ---       #832
      010012A8H   LINE      CODE     ---       #833
      010012A8H   LINE      CODE     ---       #834
      010012AAH   LINE      CODE     ---       #835
      010012B2H   LINE      CODE     ---       #836
      010012B2H   LINE      CODE     ---       #837
      010012B8H   LINE      CODE     ---       #838
      010012B8H   LINE      CODE     ---       #839
      010012C3H   LINE      CODE     ---       #840
      010012D2H   LINE      CODE     ---       #841
      010012D7H   LINE      CODE     ---       #842
      010012E6H   LINE      CODE     ---       #843
LX51 LINKER/LOCATER V4.41                                                             12/29/2020  21:56:30  PAGE 23


      010012EBH   LINE      CODE     ---       #844
      010012F0H   LINE      CODE     ---       #845
      010012F0H   LINE      CODE     ---       #846
      010012F0H   LINE      CODE     ---       #847
      010012F0H   LINE      CODE     ---       #849
      010012F8H   LINE      CODE     ---       #850
      010012F8H   LINE      CODE     ---       #851
      010012FFH   LINE      CODE     ---       #852
      01001303H   LINE      CODE     ---       #853
      01001308H   LINE      CODE     ---       #854
      0100130BH   LINE      CODE     ---       #855
      01001313H   LINE      CODE     ---       #856
      01001313H   LINE      CODE     ---       #857
      0100131AH   LINE      CODE     ---       #858
      0100131EH   LINE      CODE     ---       #859
      01001323H   LINE      CODE     ---       #860
      01001323H   LINE      CODE     ---       #861
      01001323H   LINE      CODE     ---       #863
      01001326H   LINE      CODE     ---       #864
      ---         BLOCKEND  ---      ---       LVL=0

      ---         MODULE    ---      ---       USART
      010018CAH   PUBLIC    CODE     ---       Usart_Rx
      0100000EH   PUBLIC    CODE     ---       _send_string
      01001D46H   PUBLIC    CODE     ---       _send_byte
      01001C9CH   PUBLIC    CODE     ---       usart_init
      00000080H   SFRSYM    DATA     BYTE      P0
      00000090H   SFRSYM    DATA     BYTE      P1
      000000A0H   SFRSYM    DATA     BYTE      P2
      000000B0H   SFRSYM    DATA     BYTE      P3
      000000B0H.4 SFRSYM    DATA     BIT       T0
      000000D0H.6 SFRSYM    DATA     BIT       AC
      000000B0H.5 SFRSYM    DATA     BIT       T1
      000000A8H.7 SFRSYM    DATA     BIT       EA
      00000080H.5 SFRSYM    DATA     BIT       SDA1
      000000A8H   SFRSYM    DATA     BYTE      IE
      00000080H.4 SFRSYM    DATA     BIT       SCL1
      000000B0H.7 SFRSYM    DATA     BIT       RD
      000000A8H.4 SFRSYM    DATA     BIT       ES
      000000B8H   SFRSYM    DATA     BYTE      IP
      00000098H   SFRSYM    DATA     BIT       RI
      000000B0H.2 SFRSYM    DATA     BIT       INT0
      000000D0H.7 SFRSYM    DATA     BIT       CY
      00000098H.1 SFRSYM    DATA     BIT       TI
      000000B0H.3 SFRSYM    DATA     BIT       INT1
      000000B8H.4 SFRSYM    DATA     BIT       PS
      00000081H   SFRSYM    DATA     BYTE      SP
      000000D0H.2 SFRSYM    DATA     BIT       OV
      000000B0H.6 SFRSYM    DATA     BIT       WR
      00000099H   SFRSYM    DATA     BYTE      SBUF
      00000087H   SFRSYM    DATA     BYTE      PCON
      00000098H   SFRSYM    DATA     BYTE      SCON
      00000080H.5 SFRSYM    DATA     BIT       OLED_SDIN
      00000089H   SFRSYM    DATA     BYTE      TMOD
      00000088H   SFRSYM    DATA     BYTE      TCON
      00000088H.1 SFRSYM    DATA     BIT       IE0
      00000088H.3 SFRSYM    DATA     BIT       IE1
      000000F0H   SFRSYM    DATA     BYTE      B
      000000E0H   SFRSYM    DATA     BYTE      ACC
      000000A8H.1 SFRSYM    DATA     BIT       ET0
      000000A8H.3 SFRSYM    DATA     BIT       ET1
      00000088H.5 SFRSYM    DATA     BIT       TF0
      00000088H.7 SFRSYM    DATA     BIT       TF1
      00000098H.2 SFRSYM    DATA     BIT       RB8
      0000008CH   SFRSYM    DATA     BYTE      TH0
LX51 LINKER/LOCATER V4.41                                                             12/29/2020  21:56:30  PAGE 24


      000000A8H   SFRSYM    DATA     BIT       EX0
      00000088H   SFRSYM    DATA     BIT       IT0
      0000008DH   SFRSYM    DATA     BYTE      TH1
      00000098H.3 SFRSYM    DATA     BIT       TB8
      000000A8H.2 SFRSYM    DATA     BIT       EX1
      00000088H.2 SFRSYM    DATA     BIT       IT1
      000000D0H   SFRSYM    DATA     BIT       P
      00000098H.7 SFRSYM    DATA     BIT       SM0
      0000008AH   SFRSYM    DATA     BYTE      TL0
      00000098H.6 SFRSYM    DATA     BIT       SM1
      0000008BH   SFRSYM    DATA     BYTE      TL1
      00000098H.5 SFRSYM    DATA     BIT       SM2
      000000B8H.1 SFRSYM    DATA     BIT       PT0
      000000B8H.3 SFRSYM    DATA     BIT       PT1
      000000D0H.3 SFRSYM    DATA     BIT       RS0
      00000088H.4 SFRSYM    DATA     BIT       TR0
      000000D0H.4 SFRSYM    DATA     BIT       RS1
      00000088H.6 SFRSYM    DATA     BIT       TR1
      000000B8H   SFRSYM    DATA     BIT       PX0
      000000B8H.2 SFRSYM    DATA     BIT       PX1
      00000083H   SFRSYM    DATA     BYTE      DPH
      00000082H   SFRSYM    DATA     BYTE      DPL
      00000098H.4 SFRSYM    DATA     BIT       REN
      00000080H.4 SFRSYM    DATA     BIT       OLED_SCL
      000000B0H   SFRSYM    DATA     BIT       RXD
      000000B0H.1 SFRSYM    DATA     BIT       TXD
      000000D0H.5 SFRSYM    DATA     BIT       F0
      000000D0H   SFRSYM    DATA     BYTE      PSW

      01001C9CH   BLOCK     CODE     ---       LVL=0
      01001C9CH   LINE      CODE     ---       #6
      01001C9CH   LINE      CODE     ---       #7
      01001C9CH   LINE      CODE     ---       #8
      01001C9FH   LINE      CODE     ---       #9
      01001CA2H   LINE      CODE     ---       #10
      01001CA5H   LINE      CODE     ---       #11
      01001CA8H   LINE      CODE     ---       #12
      01001CABH   LINE      CODE     ---       #13
      01001CADH   LINE      CODE     ---       #14
      01001CAFH   LINE      CODE     ---       #15
      01001CB1H   LINE      CODE     ---       #17
      ---         BLOCKEND  ---      ---       LVL=0

      01001D46H   BLOCK     CODE     ---       LVL=0
      00000007H   SYMBOL    DATA     BYTE      dat
      01001D46H   LINE      CODE     ---       #20
      01001D46H   LINE      CODE     ---       #21
      01001D46H   LINE      CODE     ---       #22
      01001D48H   LINE      CODE     ---       #23
      01001D4AH   LINE      CODE     ---       #24
      01001D4DH   LINE      CODE     ---       #25
      01001D4FH   LINE      CODE     ---       #26
      01001D51H   LINE      CODE     ---       #27
      ---         BLOCKEND  ---      ---       LVL=0

      0100000EH   BLOCK     CODE     ---       LVL=0
      00000001H   SYMBOL    DATA     ---       p
      0100000EH   LINE      CODE     ---       #30
      0100000EH   LINE      CODE     ---       #31
      0100000EH   LINE      CODE     ---       #32
      01000014H   LINE      CODE     ---       #33
      01000014H   LINE      CODE     ---       #34
      01000017H   LINE      CODE     ---       #35
      0100001EH   LINE      CODE     ---       #36
      01000020H   LINE      CODE     ---       #37
LX51 LINKER/LOCATER V4.41                                                             12/29/2020  21:56:30  PAGE 25


      ---         BLOCKEND  ---      ---       LVL=0

      010018CAH   BLOCK     CODE     ---       LVL=0
      010018D7H   BLOCK     CODE     NEAR LAB  LVL=1
      00000007H   SYMBOL    DATA     BYTE      Res
      ---         BLOCKEND  ---      ---       LVL=1
      010018CAH   LINE      CODE     ---       #39
      010018D7H   LINE      CODE     ---       #42
      010018DAH   LINE      CODE     ---       #43
      010018DAH   LINE      CODE     ---       #44
      010018DCH   LINE      CODE     ---       #45
      010018DEH   LINE      CODE     ---       #46
      010018E3H   LINE      CODE     ---       #47
      010018E3H   LINE      CODE     ---       #48
      010018E6H   LINE      CODE     ---       #49
      010018E6H   LINE      CODE     ---       #50
      010018EDH   LINE      CODE     ---       #51
      010018F0H   LINE      CODE     ---       #52
      010018F2H   LINE      CODE     ---       #54
      010018F2H   LINE      CODE     ---       #55
      010018FAH   LINE      CODE     ---       #57
      010018FAH   LINE      CODE     ---       #58
      01001909H   LINE      CODE     ---       #59
      0100190BH   LINE      CODE     ---       #60
      01001915H   LINE      CODE     ---       #61
      01001915H   LINE      CODE     ---       #62
      01001915H   LINE      CODE     ---       #63
      01001915H   LINE      CODE     ---       #64
      01001915H   LINE      CODE     ---       #65
      ---         BLOCKEND  ---      ---       LVL=0

      ---         MODULE    ---      ---       KEY
      010016A2H   PUBLIC    CODE     ---       KeyDown
      00000080H   SFRSYM    DATA     BYTE      P0
      00000090H   SFRSYM    DATA     BYTE      P1
      000000A0H   SFRSYM    DATA     BYTE      P2
      000000B0H   SFRSYM    DATA     BYTE      P3
      000000B0H.4 SFRSYM    DATA     BIT       T0
      000000D0H.6 SFRSYM    DATA     BIT       AC
      000000B0H.5 SFRSYM    DATA     BIT       T1
      000000A8H.7 SFRSYM    DATA     BIT       EA
      00000080H.5 SFRSYM    DATA     BIT       SDA1
      000000A8H   SFRSYM    DATA     BYTE      IE
      00000080H.4 SFRSYM    DATA     BIT       SCL1
      000000B0H.7 SFRSYM    DATA     BIT       RD
      000000A8H.4 SFRSYM    DATA     BIT       ES
      000000B8H   SFRSYM    DATA     BYTE      IP
      00000098H   SFRSYM    DATA     BIT       RI
      000000B0H.2 SFRSYM    DATA     BIT       INT0
      000000D0H.7 SFRSYM    DATA     BIT       CY
      00000098H.1 SFRSYM    DATA     BIT       TI
      000000B0H.3 SFRSYM    DATA     BIT       INT1
      000000B8H.4 SFRSYM    DATA     BIT       PS
      00000081H   SFRSYM    DATA     BYTE      SP
      000000D0H.2 SFRSYM    DATA     BIT       OV
      000000B0H.6 SFRSYM    DATA     BIT       WR
      00000099H   SFRSYM    DATA     BYTE      SBUF
      00000087H   SFRSYM    DATA     BYTE      PCON
      00000098H   SFRSYM    DATA     BYTE      SCON
      00000080H.5 SFRSYM    DATA     BIT       OLED_SDIN
      00000089H   SFRSYM    DATA     BYTE      TMOD
      00000088H   SFRSYM    DATA     BYTE      TCON
      00000088H.1 SFRSYM    DATA     BIT       IE0
      00000088H.3 SFRSYM    DATA     BIT       IE1
      000000F0H   SFRSYM    DATA     BYTE      B
LX51 LINKER/LOCATER V4.41                                                             12/29/2020  21:56:30  PAGE 26


      000000E0H   SFRSYM    DATA     BYTE      ACC
      000000A8H.1 SFRSYM    DATA     BIT       ET0
      000000A8H.3 SFRSYM    DATA     BIT       ET1
      00000088H.5 SFRSYM    DATA     BIT       TF0
      00000088H.7 SFRSYM    DATA     BIT       TF1
      00000098H.2 SFRSYM    DATA     BIT       RB8
      0000008CH   SFRSYM    DATA     BYTE      TH0
      000000A8H   SFRSYM    DATA     BIT       EX0
      00000088H   SFRSYM    DATA     BIT       IT0
      0000008DH   SFRSYM    DATA     BYTE      TH1
      00000098H.3 SFRSYM    DATA     BIT       TB8
      000000A8H.2 SFRSYM    DATA     BIT       EX1
      00000088H.2 SFRSYM    DATA     BIT       IT1
      000000D0H   SFRSYM    DATA     BIT       P
      00000098H.7 SFRSYM    DATA     BIT       SM0
      0000008AH   SFRSYM    DATA     BYTE      TL0
      00000098H.6 SFRSYM    DATA     BIT       SM1
      0000008BH   SFRSYM    DATA     BYTE      TL1
      00000098H.5 SFRSYM    DATA     BIT       SM2
      000000B8H.1 SFRSYM    DATA     BIT       PT0
      000000B8H.3 SFRSYM    DATA     BIT       PT1
      000000D0H.3 SFRSYM    DATA     BIT       RS0
      00000088H.4 SFRSYM    DATA     BIT       TR0
      000000D0H.4 SFRSYM    DATA     BIT       RS1
      00000088H.6 SFRSYM    DATA     BIT       TR1
      000000B8H   SFRSYM    DATA     BIT       PX0
      000000B8H.2 SFRSYM    DATA     BIT       PX1
      00000083H   SFRSYM    DATA     BYTE      DPH
      00000082H   SFRSYM    DATA     BYTE      DPL
      00000098H.4 SFRSYM    DATA     BIT       REN
      00000080H.4 SFRSYM    DATA     BIT       OLED_SCL
      000000B0H   SFRSYM    DATA     BIT       RXD
      000000B0H.1 SFRSYM    DATA     BIT       TXD
      000000D0H.5 SFRSYM    DATA     BIT       F0
      000000D0H   SFRSYM    DATA     BYTE      PSW

      010016A2H   BLOCK     CODE     ---       LVL=0
      010016A2H   BLOCK     CODE     NEAR LAB  LVL=1
      0000003CH   SYMBOL    DATA     CHAR      a
      0000003DH   SYMBOL    DATA     BYTE      KeyValue
      ---         BLOCKEND  ---      ---       LVL=1
      010016A2H   LINE      CODE     ---       #8
      010016A2H   LINE      CODE     ---       #9
      010016A2H   LINE      CODE     ---       #10
      010016A5H   LINE      CODE     ---       #12
      010016A8H   LINE      CODE     ---       #13
      010016AEH   LINE      CODE     ---       #14
      010016AEH   LINE      CODE     ---       #15
      010016B3H   LINE      CODE     ---       #16
      010016B9H   LINE      CODE     ---       #17
      010016B9H   LINE      CODE     ---       #19
      010016BCH   LINE      CODE     ---       #20
      010016CEH   LINE      CODE     ---       #21
      010016CEH   LINE      CODE     ---       #22
      010016D3H   LINE      CODE     ---       #23
      010016D8H   LINE      CODE     ---       #24
      010016DDH   LINE      CODE     ---       #25
      010016E0H   LINE      CODE     ---       #26
      010016E0H   LINE      CODE     ---       #28
      010016E3H   LINE      CODE     ---       #29
      010016F6H   LINE      CODE     ---       #30
      010016F6H   LINE      CODE     ---       #31
      010016FBH   LINE      CODE     ---       #32
      010016FFH   LINE      CODE     ---       #33
      01001703H   LINE      CODE     ---       #34
LX51 LINKER/LOCATER V4.41                                                             12/29/2020  21:56:30  PAGE 27


      01001709H   LINE      CODE     ---       #35
      01001709H   LINE      CODE     ---       #36
      01001718H   LINE      CODE     ---       #37
      01001718H   LINE      CODE     ---       #38
      0100171DH   LINE      CODE     ---       #39
      0100171FH   LINE      CODE     ---       #40
      01001721H   LINE      CODE     ---       #41
      01001721H   LINE      CODE     ---       #42
      01001721H   LINE      CODE     ---       #44
      01001724H   LINE      CODE     ---       #45
      01001726H   LINE      CODE     ---       #46
      ---         BLOCKEND  ---      ---       LVL=0

      ---         MODULE    ---      ---       AT24C02
      01001BF8H   PUBLIC    CODE     ---       _At24c02Read
      01001C53H   PUBLIC    CODE     ---       _At24c02Write
      01001B88H   PUBLIC    CODE     ---       I2cReadByte
      010019FEH   PUBLIC    CODE     ---       _I2cSendByte
      01001D73H   PUBLIC    CODE     ---       I2cStop
      01001D1AH   PUBLIC    CODE     ---       I2cStart
      01001D3DH   PUBLIC    CODE     ---       Delay10us
      00000080H   SFRSYM    DATA     BYTE      P0
      00000090H   SFRSYM    DATA     BYTE      P1
      000000A0H   SFRSYM    DATA     BYTE      P2
      000000B0H   SFRSYM    DATA     BYTE      P3
      000000B0H.4 SFRSYM    DATA     BIT       T0
      000000D0H.6 SFRSYM    DATA     BIT       AC
      000000B0H.5 SFRSYM    DATA     BIT       T1
      000000A8H.7 SFRSYM    DATA     BIT       EA
      00000080H.5 SFRSYM    DATA     BIT       SDA1
      000000A8H   SFRSYM    DATA     BYTE      IE
      00000080H.4 SFRSYM    DATA     BIT       SCL1
      000000B0H.7 SFRSYM    DATA     BIT       RD
      000000A8H.4 SFRSYM    DATA     BIT       ES
      000000B8H   SFRSYM    DATA     BYTE      IP
      00000098H   SFRSYM    DATA     BIT       RI
      000000B0H.2 SFRSYM    DATA     BIT       INT0
      000000D0H.7 SFRSYM    DATA     BIT       CY
      00000098H.1 SFRSYM    DATA     BIT       TI
      000000B0H.3 SFRSYM    DATA     BIT       INT1
      000000B8H.4 SFRSYM    DATA     BIT       PS
      00000081H   SFRSYM    DATA     BYTE      SP
      000000D0H.2 SFRSYM    DATA     BIT       OV
      000000B0H.6 SFRSYM    DATA     BIT       WR
      00000099H   SFRSYM    DATA     BYTE      SBUF
      00000087H   SFRSYM    DATA     BYTE      PCON
      00000098H   SFRSYM    DATA     BYTE      SCON
      00000080H.5 SFRSYM    DATA     BIT       OLED_SDIN
      00000089H   SFRSYM    DATA     BYTE      TMOD
      00000088H   SFRSYM    DATA     BYTE      TCON
      00000088H.1 SFRSYM    DATA     BIT       IE0
      00000088H.3 SFRSYM    DATA     BIT       IE1
      000000F0H   SFRSYM    DATA     BYTE      B
      000000E0H   SFRSYM    DATA     BYTE      ACC
      000000A8H.1 SFRSYM    DATA     BIT       ET0
      000000A8H.3 SFRSYM    DATA     BIT       ET1
      00000088H.5 SFRSYM    DATA     BIT       TF0
      00000088H.7 SFRSYM    DATA     BIT       TF1
      00000098H.2 SFRSYM    DATA     BIT       RB8
      0000008CH   SFRSYM    DATA     BYTE      TH0
      000000A8H   SFRSYM    DATA     BIT       EX0
      00000088H   SFRSYM    DATA     BIT       IT0
      0000008DH   SFRSYM    DATA     BYTE      TH1
      00000098H.3 SFRSYM    DATA     BIT       TB8
      000000A8H.2 SFRSYM    DATA     BIT       EX1
LX51 LINKER/LOCATER V4.41                                                             12/29/2020  21:56:30  PAGE 28


      00000088H.2 SFRSYM    DATA     BIT       IT1
      000000D0H   SFRSYM    DATA     BIT       P
      00000098H.7 SFRSYM    DATA     BIT       SM0
      0000008AH   SFRSYM    DATA     BYTE      TL0
      00000098H.6 SFRSYM    DATA     BIT       SM1
      0000008BH   SFRSYM    DATA     BYTE      TL1
      00000098H.5 SFRSYM    DATA     BIT       SM2
      000000B8H.1 SFRSYM    DATA     BIT       PT0
      000000B8H.3 SFRSYM    DATA     BIT       PT1
      000000D0H.3 SFRSYM    DATA     BIT       RS0
      00000088H.4 SFRSYM    DATA     BIT       TR0
      000000D0H.4 SFRSYM    DATA     BIT       RS1
      00000088H.6 SFRSYM    DATA     BIT       TR1
      000000B8H   SFRSYM    DATA     BIT       PX0
      000000B8H.2 SFRSYM    DATA     BIT       PX1
      00000083H   SFRSYM    DATA     BYTE      DPH
      00000082H   SFRSYM    DATA     BYTE      DPL
      00000098H.4 SFRSYM    DATA     BIT       REN
      00000080H.4 SFRSYM    DATA     BIT       OLED_SCL
      000000B0H   SFRSYM    DATA     BIT       RXD
      000000B0H.1 SFRSYM    DATA     BIT       TXD
      000000D0H.5 SFRSYM    DATA     BIT       F0
      000000D0H   SFRSYM    DATA     BYTE      PSW

      01001D38H   BLOCK     CODE     ---       LVL=0
      ---         BLOCKEND  ---      ---       LVL=0

      01001D3DH   BLOCK     CODE     ---       LVL=0
      00000006H   SYMBOL    DATA     BYTE      a
      00000007H   SYMBOL    DATA     BYTE      b
      01001D3DH   BLOCK     CODE     NEAR LAB  LVL=1
      00000006H   SYMBOL    DATA     BYTE      a
      00000007H   SYMBOL    DATA     BYTE      b
      ---         BLOCKEND  ---      ---       LVL=1
      01001D3DH   LINE      CODE     ---       #9
      01001D3DH   LINE      CODE     ---       #10
      01001D3DH   LINE      CODE     ---       #12
      01001D3FH   LINE      CODE     ---       #13
      01001D45H   LINE      CODE     ---       #14
      ---         BLOCKEND  ---      ---       LVL=0

      01001D1AH   BLOCK     CODE     ---       LVL=0
      01001D1AH   LINE      CODE     ---       #22
      01001D1AH   LINE      CODE     ---       #23
      01001D1AH   LINE      CODE     ---       #24
      01001D1CH   LINE      CODE     ---       #25
      01001D1CH   LINE      CODE     ---       #26
      01001D1CH   LINE      CODE     ---       #27
      01001D1FH   LINE      CODE     ---       #28
      01001D21H   LINE      CODE     ---       #29
      01001D24H   LINE      CODE     ---       #30
      01001D26H   LINE      CODE     ---       #31
      ---         BLOCKEND  ---      ---       LVL=0

      01001D73H   BLOCK     CODE     ---       LVL=0
      01001D73H   LINE      CODE     ---       #41
      01001D73H   LINE      CODE     ---       #42
      01001D73H   LINE      CODE     ---       #43
      01001D75H   LINE      CODE     ---       #44
      01001D75H   LINE      CODE     ---       #45
      01001D75H   LINE      CODE     ---       #46
      01001D78H   LINE      CODE     ---       #47
      01001D7AH   LINE      CODE     ---       #48
      ---         BLOCKEND  ---      ---       LVL=0

LX51 LINKER/LOCATER V4.41                                                             12/29/2020  21:56:30  PAGE 29


      010019FEH   BLOCK     CODE     ---       LVL=0
      00000005H   SYMBOL    DATA     BYTE      dat
      01001A00H   BLOCK     CODE     NEAR LAB  LVL=1
      00000003H   SYMBOL    DATA     BYTE      a
      00000002H   SYMBOL    DATA     BYTE      b
      ---         BLOCKEND  ---      ---       LVL=1
      010019FEH   LINE      CODE     ---       #58
      01001A00H   LINE      CODE     ---       #59
      01001A00H   LINE      CODE     ---       #60
      01001A03H   LINE      CODE     ---       #61
      01001A03H   LINE      CODE     ---       #62
      01001A03H   LINE      CODE     ---       #63
      01001A0EH   LINE      CODE     ---       #64
      01001A12H   LINE      CODE     ---       #65
      01001A12H   LINE      CODE     ---       #66
      01001A12H   LINE      CODE     ---       #67
      01001A15H   LINE      CODE     ---       #68
      01001A17H   LINE      CODE     ---       #69
      01001A1AH   LINE      CODE     ---       #70
      01001A1EH   LINE      CODE     ---       #71
      01001A20H   LINE      CODE     ---       #72
      01001A23H   LINE      CODE     ---       #73
      01001A25H   LINE      CODE     ---       #74
      01001A28H   LINE      CODE     ---       #75
      01001A28H   LINE      CODE     ---       #76
      01001A29H   LINE      CODE     ---       #77
      01001A2FH   LINE      CODE     ---       #78
      01001A2FH   LINE      CODE     ---       #79
      01001A31H   LINE      CODE     ---       #80
      01001A34H   LINE      CODE     ---       #81
      01001A37H   LINE      CODE     ---       #82
      01001A37H   LINE      CODE     ---       #83
      01001A37H   LINE      CODE     ---       #84
      01001A39H   LINE      CODE     ---       #85
      01001A3CH   LINE      CODE     ---       #86
      01001A3EH   LINE      CODE     ---       #87
      ---         BLOCKEND  ---      ---       LVL=0

      01001B88H   BLOCK     CODE     ---       LVL=0
      01001B88H   BLOCK     CODE     NEAR LAB  LVL=1
      00000005H   SYMBOL    DATA     BYTE      a
      00000004H   SYMBOL    DATA     BYTE      dat
      ---         BLOCKEND  ---      ---       LVL=1
      01001B88H   LINE      CODE     ---       #96
      01001B88H   LINE      CODE     ---       #97
      01001B88H   LINE      CODE     ---       #98
      01001B8BH   LINE      CODE     ---       #99
      01001B8DH   LINE      CODE     ---       #100
      01001B90H   LINE      CODE     ---       #101
      01001B90H   LINE      CODE     ---       #102
      01001B90H   LINE      CODE     ---       #103
      01001B92H   LINE      CODE     ---       #104
      01001B95H   LINE      CODE     ---       #105
      01001B99H   LINE      CODE     ---       #106
      01001B9FH   LINE      CODE     ---       #107
      01001BA2H   LINE      CODE     ---       #108
      01001BA4H   LINE      CODE     ---       #109
      01001BA7H   LINE      CODE     ---       #110
      01001BABH   LINE      CODE     ---       #111
      01001BADH   LINE      CODE     ---       #112
      ---         BLOCKEND  ---      ---       LVL=0

      01001C53H   BLOCK     CODE     ---       LVL=0
      00000001H   SYMBOL    DATA     BYTE      addr
      00000004H   SYMBOL    DATA     BYTE      dat
LX51 LINKER/LOCATER V4.41                                                             12/29/2020  21:56:30  PAGE 30


      01001C53H   LINE      CODE     ---       #122
      01001C57H   LINE      CODE     ---       #123
      01001C57H   LINE      CODE     ---       #124
      01001C5AH   LINE      CODE     ---       #125
      01001C5FH   LINE      CODE     ---       #126
      01001C64H   LINE      CODE     ---       #127
      01001C69H   LINE      CODE     ---       #128
      ---         BLOCKEND  ---      ---       LVL=0

      01001BF8H   BLOCK     CODE     ---       LVL=0
      00000004H   SYMBOL    DATA     BYTE      addr
      01001BFAH   BLOCK     CODE     NEAR LAB  LVL=1
      00000005H   SYMBOL    DATA     BYTE      num
      ---         BLOCKEND  ---      ---       LVL=1
      01001BF8H   LINE      CODE     ---       #137
      01001BFAH   LINE      CODE     ---       #138
      01001BFAH   LINE      CODE     ---       #140
      01001BFDH   LINE      CODE     ---       #141
      01001C02H   LINE      CODE     ---       #142
      01001C07H   LINE      CODE     ---       #143
      01001C0AH   LINE      CODE     ---       #144
      01001C0FH   LINE      CODE     ---       #145
      01001C14H   LINE      CODE     ---       #146
      01001C17H   LINE      CODE     ---       #147
      01001C19H   LINE      CODE     ---       #148
      ---         BLOCKEND  ---      ---       LVL=0

      ---         MODULE    ---      ---       ADS1015
      01001D52H   PUBLIC    CODE     ---       _Read_conversion
      01001B2AH   PUBLIC    CODE     ---       _Start_conversion
      00000080H   SFRSYM    DATA     BYTE      P0
      00000090H   SFRSYM    DATA     BYTE      P1
      000000A0H   SFRSYM    DATA     BYTE      P2
      000000B0H   SFRSYM    DATA     BYTE      P3
      000000B0H.4 SFRSYM    DATA     BIT       T0
      000000D0H.6 SFRSYM    DATA     BIT       AC
      000000B0H.5 SFRSYM    DATA     BIT       T1
      000000A8H.7 SFRSYM    DATA     BIT       EA
      00000080H.5 SFRSYM    DATA     BIT       SDA1
      000000A8H   SFRSYM    DATA     BYTE      IE
      00000080H.4 SFRSYM    DATA     BIT       SCL1
      000000B0H.7 SFRSYM    DATA     BIT       RD
      000000A8H.4 SFRSYM    DATA     BIT       ES
      000000B8H   SFRSYM    DATA     BYTE      IP
      00000098H   SFRSYM    DATA     BIT       RI
      000000B0H.2 SFRSYM    DATA     BIT       INT0
      000000D0H.7 SFRSYM    DATA     BIT       CY
      00000098H.1 SFRSYM    DATA     BIT       TI
      000000B0H.3 SFRSYM    DATA     BIT       INT1
      000000B8H.4 SFRSYM    DATA     BIT       PS
      00000081H   SFRSYM    DATA     BYTE      SP
      000000D0H.2 SFRSYM    DATA     BIT       OV
      000000B0H.6 SFRSYM    DATA     BIT       WR
      00000099H   SFRSYM    DATA     BYTE      SBUF
      00000087H   SFRSYM    DATA     BYTE      PCON
      00000098H   SFRSYM    DATA     BYTE      SCON
      00000080H.5 SFRSYM    DATA     BIT       OLED_SDIN
      00000089H   SFRSYM    DATA     BYTE      TMOD
      00000088H   SFRSYM    DATA     BYTE      TCON
      00000088H.1 SFRSYM    DATA     BIT       IE0
      00000088H.3 SFRSYM    DATA     BIT       IE1
      000000F0H   SFRSYM    DATA     BYTE      B
      000000E0H   SFRSYM    DATA     BYTE      ACC
      000000A8H.1 SFRSYM    DATA     BIT       ET0
      000000A8H.3 SFRSYM    DATA     BIT       ET1
LX51 LINKER/LOCATER V4.41                                                             12/29/2020  21:56:30  PAGE 31


      00000088H.5 SFRSYM    DATA     BIT       TF0
      00000088H.7 SFRSYM    DATA     BIT       TF1
      00000098H.2 SFRSYM    DATA     BIT       RB8
      0000008CH   SFRSYM    DATA     BYTE      TH0
      000000A8H   SFRSYM    DATA     BIT       EX0
      00000088H   SFRSYM    DATA     BIT       IT0
      0000008DH   SFRSYM    DATA     BYTE      TH1
      00000098H.3 SFRSYM    DATA     BIT       TB8
      000000A8H.2 SFRSYM    DATA     BIT       EX1
      00000088H.2 SFRSYM    DATA     BIT       IT1
      000000D0H   SFRSYM    DATA     BIT       P
      00000098H.7 SFRSYM    DATA     BIT       SM0
      0000008AH   SFRSYM    DATA     BYTE      TL0
      00000098H.6 SFRSYM    DATA     BIT       SM1
      0000008BH   SFRSYM    DATA     BYTE      TL1
      00000098H.5 SFRSYM    DATA     BIT       SM2
      000000B8H.1 SFRSYM    DATA     BIT       PT0
      000000B8H.3 SFRSYM    DATA     BIT       PT1
      000000D0H.3 SFRSYM    DATA     BIT       RS0
      00000088H.4 SFRSYM    DATA     BIT       TR0
      000000D0H.4 SFRSYM    DATA     BIT       RS1
      00000088H.6 SFRSYM    DATA     BIT       TR1
      00000080H.5 SFRSYM    DATA     BIT       SDA
      000000B8H   SFRSYM    DATA     BIT       PX0
      000000B8H.2 SFRSYM    DATA     BIT       PX1
      00000083H   SFRSYM    DATA     BYTE      DPH
      00000082H   SFRSYM    DATA     BYTE      DPL
      00000080H.4 SFRSYM    DATA     BIT       SCL
      00000098H.4 SFRSYM    DATA     BIT       REN
      00000080H.4 SFRSYM    DATA     BIT       OLED_SCL
      000000B0H   SFRSYM    DATA     BIT       RXD
      000000B0H.1 SFRSYM    DATA     BIT       TXD
      000000D0H.5 SFRSYM    DATA     BIT       F0
      000000D0H   SFRSYM    DATA     BYTE      PSW

      01001B2AH   BLOCK     CODE     ---       LVL=0
      00000007H   SYMBOL    DATA     BYTE      sla_addr
      00000005H   SYMBOL    DATA     BYTE      sub_addr
      00000003H   SYMBOL    DATA     BYTE      ch
      01001B2AH   BLOCK     CODE     NEAR LAB  LVL=1
      00000020H.0 SYMBOL    BIT      BIT       rec_result
      00000028H   SYMBOL    DATA     ---       uca_wr_dat
      ---         BLOCKEND  ---      ---       LVL=1
      01001B2AH   LINE      CODE     ---       #24
      01001B2AH   LINE      CODE     ---       #25
      01001B2AH   LINE      CODE     ---       #29
      01001B2DH   LINE      CODE     ---       #30
      01001B2DH   LINE      CODE     ---       #31
      01001B30H   LINE      CODE     ---       #32
      01001B32H   LINE      CODE     ---       #33
      01001B35H   LINE      CODE     ---       #34
      01001B35H   LINE      CODE     ---       #35
      01001B38H   LINE      CODE     ---       #36
      01001B3AH   LINE      CODE     ---       #37
      01001B3DH   LINE      CODE     ---       #38
      01001B3DH   LINE      CODE     ---       #39
      01001B40H   LINE      CODE     ---       #40
      01001B42H   LINE      CODE     ---       #41
      01001B45H   LINE      CODE     ---       #42
      01001B45H   LINE      CODE     ---       #43
      01001B48H   LINE      CODE     ---       #44
      01001B48H   LINE      CODE     ---       #45
      01001B4BH   LINE      CODE     ---       #47
      01001B58H   LINE      CODE     ---       #49
      01001B5AH   LINE      CODE     ---       #50
LX51 LINKER/LOCATER V4.41                                                             12/29/2020  21:56:30  PAGE 32


      ---         BLOCKEND  ---      ---       LVL=0

      01001D52H   BLOCK     CODE     ---       LVL=0
      00000007H   SYMBOL    DATA     BYTE      sla_addr
      00000005H   SYMBOL    DATA     BYTE      sub_addr
      00000001H   SYMBOL    DATA     ---       rec_buf
      01001D52H   BLOCK     CODE     NEAR LAB  LVL=1
      00000020H.0 SYMBOL    BIT      BIT       rec_result
      ---         BLOCKEND  ---      ---       LVL=1
      01001D52H   LINE      CODE     ---       #60
      01001D52H   LINE      CODE     ---       #61
      01001D52H   LINE      CODE     ---       #64
      01001D5AH   LINE      CODE     ---       #66
      01001D5CH   LINE      CODE     ---       #67
      ---         BLOCKEND  ---      ---       LVL=0

      ---         MODULE    ---      ---       I2C
      00000020H.6 PUBLIC    BIT      BIT       ack
      00000056H   PUBLIC    DATA     BYTE      ?_IRcvStr?BYTE
      0100196BH   PUBLIC    CODE     ---       _IRcvStr
      00000063H   PUBLIC    DATA     BYTE      ?_ISendStr?BYTE
      01001AF8H   PUBLIC    CODE     ---       _ISendStr
      01001C6CH   PUBLIC    CODE     ---       Ack_I2c
      01001BD4H   PUBLIC    CODE     ---       RcvByte
      01001A82H   PUBLIC    CODE     ---       _SendByte
      01001CC8H   PUBLIC    CODE     ---       Stop_I2c
      01001CB2H   PUBLIC    CODE     ---       Start_I2c
      00000080H   SFRSYM    DATA     BYTE      P0
      00000090H   SFRSYM    DATA     BYTE      P1
      000000A0H   SFRSYM    DATA     BYTE      P2
      000000B0H   SFRSYM    DATA     BYTE      P3
      000000B0H.4 SFRSYM    DATA     BIT       T0
      000000D0H.6 SFRSYM    DATA     BIT       AC
      000000B0H.5 SFRSYM    DATA     BIT       T1
      000000A8H.7 SFRSYM    DATA     BIT       EA
      00000080H.5 SFRSYM    DATA     BIT       SDA1
      000000A8H   SFRSYM    DATA     BYTE      IE
      00000080H.4 SFRSYM    DATA     BIT       SCL1
      000000B0H.7 SFRSYM    DATA     BIT       RD
      000000A8H.4 SFRSYM    DATA     BIT       ES
      000000B8H   SFRSYM    DATA     BYTE      IP
      00000098H   SFRSYM    DATA     BIT       RI
      000000B0H.2 SFRSYM    DATA     BIT       INT0
      000000D0H.7 SFRSYM    DATA     BIT       CY
      00000098H.1 SFRSYM    DATA     BIT       TI
      000000B0H.3 SFRSYM    DATA     BIT       INT1
      000000B8H.4 SFRSYM    DATA     BIT       PS
      00000081H   SFRSYM    DATA     BYTE      SP
      000000D0H.2 SFRSYM    DATA     BIT       OV
      000000B0H.6 SFRSYM    DATA     BIT       WR
      00000099H   SFRSYM    DATA     BYTE      SBUF
      00000087H   SFRSYM    DATA     BYTE      PCON
      00000098H   SFRSYM    DATA     BYTE      SCON
      00000080H.5 SFRSYM    DATA     BIT       OLED_SDIN
      00000089H   SFRSYM    DATA     BYTE      TMOD
      00000088H   SFRSYM    DATA     BYTE      TCON
      00000088H.1 SFRSYM    DATA     BIT       IE0
      00000088H.3 SFRSYM    DATA     BIT       IE1
      000000F0H   SFRSYM    DATA     BYTE      B
      000000E0H   SFRSYM    DATA     BYTE      ACC
      000000A8H.1 SFRSYM    DATA     BIT       ET0
      000000A8H.3 SFRSYM    DATA     BIT       ET1
      00000088H.5 SFRSYM    DATA     BIT       TF0
      00000088H.7 SFRSYM    DATA     BIT       TF1
      00000098H.2 SFRSYM    DATA     BIT       RB8
LX51 LINKER/LOCATER V4.41                                                             12/29/2020  21:56:30  PAGE 33


      0000008CH   SFRSYM    DATA     BYTE      TH0
      000000A8H   SFRSYM    DATA     BIT       EX0
      00000088H   SFRSYM    DATA     BIT       IT0
      0000008DH   SFRSYM    DATA     BYTE      TH1
      00000098H.3 SFRSYM    DATA     BIT       TB8
      000000A8H.2 SFRSYM    DATA     BIT       EX1
      00000088H.2 SFRSYM    DATA     BIT       IT1
      000000D0H   SFRSYM    DATA     BIT       P
      00000098H.7 SFRSYM    DATA     BIT       SM0
      0000008AH   SFRSYM    DATA     BYTE      TL0
      00000098H.6 SFRSYM    DATA     BIT       SM1
      0000008BH   SFRSYM    DATA     BYTE      TL1
      00000098H.5 SFRSYM    DATA     BIT       SM2
      000000B8H.1 SFRSYM    DATA     BIT       PT0
      000000B8H.3 SFRSYM    DATA     BIT       PT1
      000000D0H.3 SFRSYM    DATA     BIT       RS0
      00000088H.4 SFRSYM    DATA     BIT       TR0
      000000D0H.4 SFRSYM    DATA     BIT       RS1
      00000088H.6 SFRSYM    DATA     BIT       TR1
      00000080H.5 SFRSYM    DATA     BIT       SDA
      000000B8H   SFRSYM    DATA     BIT       PX0
      000000B8H.2 SFRSYM    DATA     BIT       PX1
      00000083H   SFRSYM    DATA     BYTE      DPH
      00000082H   SFRSYM    DATA     BYTE      DPL
      00000080H.4 SFRSYM    DATA     BIT       SCL
      00000098H.4 SFRSYM    DATA     BIT       REN
      00000080H.4 SFRSYM    DATA     BIT       OLED_SCL
      000000B0H   SFRSYM    DATA     BIT       RXD
      000000B0H.1 SFRSYM    DATA     BIT       TXD
      000000D0H.5 SFRSYM    DATA     BIT       F0
      000000D0H   SFRSYM    DATA     BYTE      PSW
      01001A7FH   SYMBOL    CODE     ---       _SendByte
      01001BD4H   SYMBOL    CODE     ---       RcvByte
      01001C6CH   SYMBOL    CODE     ---       Ack_I2c
      01001CB2H   SYMBOL    CODE     ---       Start_I2c
      01001CC8H   SYMBOL    CODE     ---       Stop_I2c

      01001CEAH   BLOCK     CODE     ---       LVL=0
      ---         BLOCKEND  ---      ---       LVL=0

      01001CB2H   BLOCK     CODE     ---       LVL=0
      01001CB2H   LINE      CODE     ---       #32
      01001CB2H   LINE      CODE     ---       #33
      01001CB2H   LINE      CODE     ---       #34
      01001CB4H   LINE      CODE     ---       #35
      01001CB5H   LINE      CODE     ---       #36
      01001CB7H   LINE      CODE     ---       #37
      01001CB8H   LINE      CODE     ---       #38
      01001CB9H   LINE      CODE     ---       #39
      01001CBAH   LINE      CODE     ---       #40
      01001CBBH   LINE      CODE     ---       #41
      01001CBCH   LINE      CODE     ---       #42
      01001CBEH   LINE      CODE     ---       #43
      01001CBFH   LINE      CODE     ---       #44
      01001CC0H   LINE      CODE     ---       #45
      01001CC1H   LINE      CODE     ---       #46
      01001CC2H   LINE      CODE     ---       #47
      01001CC3H   LINE      CODE     ---       #48
      01001CC5H   LINE      CODE     ---       #49
      01001CC6H   LINE      CODE     ---       #50
      01001CC7H   LINE      CODE     ---       #51
      ---         BLOCKEND  ---      ---       LVL=0

      01001CC8H   BLOCK     CODE     ---       LVL=0
      01001CC8H   LINE      CODE     ---       #63
LX51 LINKER/LOCATER V4.41                                                             12/29/2020  21:56:30  PAGE 34


      01001CC8H   LINE      CODE     ---       #64
      01001CC8H   LINE      CODE     ---       #65
      01001CCAH   LINE      CODE     ---       #66
      01001CCBH   LINE      CODE     ---       #67
      01001CCDH   LINE      CODE     ---       #68
      01001CCEH   LINE      CODE     ---       #69
      01001CCFH   LINE      CODE     ---       #70
      01001CD0H   LINE      CODE     ---       #71
      01001CD1H   LINE      CODE     ---       #72
      01001CD2H   LINE      CODE     ---       #73
      01001CD4H   LINE      CODE     ---       #74
      01001CD5H   LINE      CODE     ---       #75
      01001CD6H   LINE      CODE     ---       #76
      01001CD7H   LINE      CODE     ---       #77
      01001CD8H   LINE      CODE     ---       #78
      ---         BLOCKEND  ---      ---       LVL=0

      01001A7FH   BLOCK     CODE     ---       LVL=0
      ---         BLOCKEND  ---      ---       LVL=0

      01001A82H   BLOCK     CODE     ---       LVL=0
      00000007H   SYMBOL    DATA     BYTE      c
      00000006H   SYMBOL    DATA     BYTE      BitCnt
      01001A82H   BLOCK     CODE     NEAR LAB  LVL=1
      00000006H   SYMBOL    DATA     BYTE      BitCnt
      ---         BLOCKEND  ---      ---       LVL=1
      01001A82H   LINE      CODE     ---       #93
      01001A82H   LINE      CODE     ---       #94
      01001A82H   LINE      CODE     ---       #96
      01001A84H   LINE      CODE     ---       #97
      01001A84H   LINE      CODE     ---       #98
      01001A91H   LINE      CODE     ---       #99
      01001A91H   LINE      CODE     ---       #100
      01001A93H   LINE      CODE     ---       #101
      01001A95H   LINE      CODE     ---       #103
      01001A95H   LINE      CODE     ---       #104
      01001A97H   LINE      CODE     ---       #105
      01001A97H   LINE      CODE     ---       #107
      01001A98H   LINE      CODE     ---       #108
      01001A9AH   LINE      CODE     ---       #109
      01001A9BH   LINE      CODE     ---       #110
      01001A9CH   LINE      CODE     ---       #111
      01001A9DH   LINE      CODE     ---       #112
      01001A9EH   LINE      CODE     ---       #113
      01001A9FH   LINE      CODE     ---       #114
      01001AA1H   LINE      CODE     ---       #115
      01001AA5H   LINE      CODE     ---       #117
      01001AA6H   LINE      CODE     ---       #118
      01001AA7H   LINE      CODE     ---       #119
      01001AA9H   LINE      CODE     ---       #120
      01001AAAH   LINE      CODE     ---       #121
      01001AABH   LINE      CODE     ---       #122
      01001AADH   LINE      CODE     ---       #123
      01001AAEH   LINE      CODE     ---       #124
      01001AAFH   LINE      CODE     ---       #125
      01001AB0H   LINE      CODE     ---       #126
      01001AB3H   LINE      CODE     ---       #127
      01001AB3H   LINE      CODE     ---       #128
      01001AB5H   LINE      CODE     ---       #129
      01001AB7H   LINE      CODE     ---       #131
      01001AB7H   LINE      CODE     ---       #132
      01001AB9H   LINE      CODE     ---       #133
      01001AB9H   LINE      CODE     ---       #135
      01001ABBH   LINE      CODE     ---       #136
      01001ABCH   LINE      CODE     ---       #137
LX51 LINKER/LOCATER V4.41                                                             12/29/2020  21:56:30  PAGE 35


      01001ABDH   LINE      CODE     ---       #138
      ---         BLOCKEND  ---      ---       LVL=0

      01001BD4H   BLOCK     CODE     ---       LVL=0
      01001BD4H   BLOCK     CODE     NEAR LAB  LVL=1
      00000007H   SYMBOL    DATA     BYTE      retc
      00000006H   SYMBOL    DATA     BYTE      BitCnt
      ---         BLOCKEND  ---      ---       LVL=1
      01001BD4H   LINE      CODE     ---       #151
      01001BD4H   LINE      CODE     ---       #152
      01001BD4H   LINE      CODE     ---       #156
      01001BD6H   LINE      CODE     ---       #157
      01001BD8H   LINE      CODE     ---       #158
      01001BD9H   LINE      CODE     ---       #159
      01001BD9H   LINE      CODE     ---       #160
      01001BDAH   LINE      CODE     ---       #161
      01001BDCH   LINE      CODE     ---       #162
      01001BDDH   LINE      CODE     ---       #163
      01001BDEH   LINE      CODE     ---       #164
      01001BDFH   LINE      CODE     ---       #165
      01001BE0H   LINE      CODE     ---       #166
      01001BE1H   LINE      CODE     ---       #167
      01001BE3H   LINE      CODE     ---       #168
      01001BE4H   LINE      CODE     ---       #169
      01001BE5H   LINE      CODE     ---       #170
      01001BE9H   LINE      CODE     ---       #171
      01001BEDH   LINE      CODE     ---       #172
      01001BEEH   LINE      CODE     ---       #173
      01001BEFH   LINE      CODE     ---       #174
      01001BF3H   LINE      CODE     ---       #175
      01001BF5H   LINE      CODE     ---       #176
      01001BF6H   LINE      CODE     ---       #177
      01001BF7H   LINE      CODE     ---       #179
      01001BF7H   LINE      CODE     ---       #180
      ---         BLOCKEND  ---      ---       LVL=0

      01001C6CH   BLOCK     CODE     ---       LVL=0
      00000020H.4 SYMBOL    BIT      BIT       a
      01001C6CH   LINE      CODE     ---       #192
      01001C6CH   LINE      CODE     ---       #193
      01001C6CH   LINE      CODE     ---       #195
      01001C6FH   LINE      CODE     ---       #196
      01001C6FH   LINE      CODE     ---       #197
      01001C71H   LINE      CODE     ---       #198
      01001C73H   LINE      CODE     ---       #200
      01001C73H   LINE      CODE     ---       #201
      01001C75H   LINE      CODE     ---       #202
      01001C75H   LINE      CODE     ---       #203
      01001C76H   LINE      CODE     ---       #204
      01001C77H   LINE      CODE     ---       #205
      01001C78H   LINE      CODE     ---       #206
      01001C7AH   LINE      CODE     ---       #207
      01001C7BH   LINE      CODE     ---       #208
      01001C7CH   LINE      CODE     ---       #209
      01001C7DH   LINE      CODE     ---       #210
      01001C7EH   LINE      CODE     ---       #211
      01001C7FH   LINE      CODE     ---       #212
      01001C81H   LINE      CODE     ---       #213
      01001C82H   LINE      CODE     ---       #214
      01001C83H   LINE      CODE     ---       #215
      ---         BLOCKEND  ---      ---       LVL=0
      00000007H   SYMBOL    DATA     BYTE      sla
      00000005H   SYMBOL    DATA     BYTE      c

      01001AF8H   BLOCK     CODE     ---       LVL=0
LX51 LINKER/LOCATER V4.41                                                             12/29/2020  21:56:30  PAGE 36


      00000006H   SYMBOL    DATA     BYTE      sla
      00000005H   SYMBOL    DATA     BYTE      suba
      00000001H   SYMBOL    DATA     ---       s
      00000068H   SYMBOL    DATA     BYTE      no
      01001AFAH   BLOCK     CODE     NEAR LAB  LVL=1
      00000005H   SYMBOL    DATA     BYTE      i
      ---         BLOCKEND  ---      ---       LVL=1
      01001AF8H   LINE      CODE     ---       #264
      01001AFAH   LINE      CODE     ---       #265
      01001AFAH   LINE      CODE     ---       #268
      01001AFAH   LINE      CODE     ---       #269
      01001AFDH   LINE      CODE     ---       #270
      01001B02H   LINE      CODE     ---       #271
      01001B07H   LINE      CODE     ---       #272
      01001B0CH   LINE      CODE     ---       #274
      01001B14H   LINE      CODE     ---       #275
      01001B14H   LINE      CODE     ---       #276
      01001B1BH   LINE      CODE     ---       #277
      01001B20H   LINE      CODE     ---       #278
      01001B20H   LINE      CODE     ---       #279
      01001B25H   LINE      CODE     ---       #280
      01001B28H   LINE      CODE     ---       #282
      01001B29H   LINE      CODE     ---       #283
      ---         BLOCKEND  ---      ---       LVL=0

      0100196BH   BLOCK     CODE     ---       LVL=0
      00000004H   SYMBOL    DATA     BYTE      sla
      00000005H   SYMBOL    DATA     BYTE      suba
      00000001H   SYMBOL    DATA     ---       s
      0000005BH   SYMBOL    DATA     BYTE      no
      0100196DH   BLOCK     CODE     NEAR LAB  LVL=1
      00000005H   SYMBOL    DATA     BYTE      i
      ---         BLOCKEND  ---      ---       LVL=1
      0100196BH   LINE      CODE     ---       #304
      0100196DH   LINE      CODE     ---       #305
      0100196DH   LINE      CODE     ---       #308
      01001970H   LINE      CODE     ---       #309
      01001973H   LINE      CODE     ---       #310
      01001978H   LINE      CODE     ---       #311
      0100197DH   LINE      CODE     ---       #312
      01001982H   LINE      CODE     ---       #314
      01001985H   LINE      CODE     ---       #315
      0100198BH   LINE      CODE     ---       #316
      01001990H   LINE      CODE     ---       #318
      0100199BH   LINE      CODE     ---       #319
      0100199BH   LINE      CODE     ---       #320
      0100199EH   LINE      CODE     ---       #321
      010019A3H   LINE      CODE     ---       #322
      010019A3H   LINE      CODE     ---       #323
      010019A8H   LINE      CODE     ---       #324
      010019ABH   LINE      CODE     ---       #325
      010019B0H   LINE      CODE     ---       #326
      010019B3H   LINE      CODE     ---       #327
      010019B4H   LINE      CODE     ---       #328
      ---         BLOCKEND  ---      ---       LVL=0
      00000007H   SYMBOL    DATA     BYTE      sla
      00000001H   SYMBOL    DATA     ---       s
      00000005H   SYMBOL    DATA     BYTE      i
      00000007H   SYMBOL    DATA     BYTE      sla
      00000001H   SYMBOL    DATA     ---       s
      00000005H   SYMBOL    DATA     BYTE      i

      ---         MODULE    ---      ---       P8563
      00000051H   PUBLIC    DATA     BYTE      ?_P8563_RcvStr?BYTE
      01001920H   PUBLIC    CODE     ---       _P8563_RcvStr
LX51 LINKER/LOCATER V4.41                                                             12/29/2020  21:56:30  PAGE 37


      0000005EH   PUBLIC    DATA     BYTE      ?_P8563_SendStr?BYTE
      01001D29H   PUBLIC    CODE     ---       _P8563_SendStr
      00000080H   SFRSYM    DATA     BYTE      P0
      00000090H   SFRSYM    DATA     BYTE      P1
      000000A0H   SFRSYM    DATA     BYTE      P2
      000000B0H   SFRSYM    DATA     BYTE      P3
      000000B0H.4 SFRSYM    DATA     BIT       T0
      000000D0H.6 SFRSYM    DATA     BIT       AC
      000000B0H.5 SFRSYM    DATA     BIT       T1
      000000A8H.7 SFRSYM    DATA     BIT       EA
      00000080H.5 SFRSYM    DATA     BIT       SDA1
      000000A8H   SFRSYM    DATA     BYTE      IE
      00000080H.4 SFRSYM    DATA     BIT       SCL1
      000000B0H.7 SFRSYM    DATA     BIT       RD
      000000A8H.4 SFRSYM    DATA     BIT       ES
      000000B8H   SFRSYM    DATA     BYTE      IP
      00000098H   SFRSYM    DATA     BIT       RI
      000000B0H.2 SFRSYM    DATA     BIT       INT0
      000000D0H.7 SFRSYM    DATA     BIT       CY
      00000098H.1 SFRSYM    DATA     BIT       TI
      000000B0H.3 SFRSYM    DATA     BIT       INT1
      000000B8H.4 SFRSYM    DATA     BIT       PS
      00000081H   SFRSYM    DATA     BYTE      SP
      000000D0H.2 SFRSYM    DATA     BIT       OV
      000000B0H.6 SFRSYM    DATA     BIT       WR
      00000099H   SFRSYM    DATA     BYTE      SBUF
      00000087H   SFRSYM    DATA     BYTE      PCON
      00000098H   SFRSYM    DATA     BYTE      SCON
      00000080H.5 SFRSYM    DATA     BIT       OLED_SDIN
      00000089H   SFRSYM    DATA     BYTE      TMOD
      00000088H   SFRSYM    DATA     BYTE      TCON
      00000088H.1 SFRSYM    DATA     BIT       IE0
      00000088H.3 SFRSYM    DATA     BIT       IE1
      000000F0H   SFRSYM    DATA     BYTE      B
      000000E0H   SFRSYM    DATA     BYTE      ACC
      000000A8H.1 SFRSYM    DATA     BIT       ET0
      000000A8H.3 SFRSYM    DATA     BIT       ET1
      00000088H.5 SFRSYM    DATA     BIT       TF0
      00000088H.7 SFRSYM    DATA     BIT       TF1
      00000098H.2 SFRSYM    DATA     BIT       RB8
      0000008CH   SFRSYM    DATA     BYTE      TH0
      000000A8H   SFRSYM    DATA     BIT       EX0
      00000088H   SFRSYM    DATA     BIT       IT0
      0000008DH   SFRSYM    DATA     BYTE      TH1
      00000098H.3 SFRSYM    DATA     BIT       TB8
      000000A8H.2 SFRSYM    DATA     BIT       EX1
      00000088H.2 SFRSYM    DATA     BIT       IT1
      000000D0H   SFRSYM    DATA     BIT       P
      00000098H.7 SFRSYM    DATA     BIT       SM0
      0000008AH   SFRSYM    DATA     BYTE      TL0
      00000098H.6 SFRSYM    DATA     BIT       SM1
      0000008BH   SFRSYM    DATA     BYTE      TL1
      00000098H.5 SFRSYM    DATA     BIT       SM2
      000000B8H.1 SFRSYM    DATA     BIT       PT0
      000000B8H.3 SFRSYM    DATA     BIT       PT1
      000000D0H.3 SFRSYM    DATA     BIT       RS0
      00000088H.4 SFRSYM    DATA     BIT       TR0
      000000D0H.4 SFRSYM    DATA     BIT       RS1
      00000088H.6 SFRSYM    DATA     BIT       TR1
      00000080H.5 SFRSYM    DATA     BIT       SDA
      000000B8H   SFRSYM    DATA     BIT       PX0
      000000B8H.2 SFRSYM    DATA     BIT       PX1
      00000083H   SFRSYM    DATA     BYTE      DPH
      00000082H   SFRSYM    DATA     BYTE      DPL
      00000080H.4 SFRSYM    DATA     BIT       SCL
LX51 LINKER/LOCATER V4.41                                                             12/29/2020  21:56:30  PAGE 38


      00000098H.4 SFRSYM    DATA     BIT       REN
      00000080H.4 SFRSYM    DATA     BIT       OLED_SCL
      000000B0H   SFRSYM    DATA     BIT       RXD
      000000B0H.1 SFRSYM    DATA     BIT       TXD
      000000D0H.5 SFRSYM    DATA     BIT       F0
      000000D0H   SFRSYM    DATA     BYTE      PSW

      01001C39H   BLOCK     CODE     ---       LVL=0
      ---         BLOCKEND  ---      ---       LVL=0

      01001D29H   BLOCK     CODE     ---       LVL=0
      00000005H   SYMBOL    DATA     BYTE      sub_addr
      00000001H   SYMBOL    DATA     ---       send_buf
      00000062H   SYMBOL    DATA     BYTE      data_no
      01001D2BH   BLOCK     CODE     NEAR LAB  LVL=1
      00000020H.5 SYMBOL    BIT      BIT       rec_result
      ---         BLOCKEND  ---      ---       LVL=1
      01001D29H   LINE      CODE     ---       #43
      01001D2BH   LINE      CODE     ---       #44
      01001D2BH   LINE      CODE     ---       #47
      01001D35H   LINE      CODE     ---       #49
      01001D37H   LINE      CODE     ---       #50
      ---         BLOCKEND  ---      ---       LVL=0

      01001920H   BLOCK     CODE     ---       LVL=0
      00000005H   SYMBOL    DATA     BYTE      sub_addr
      00000052H   SYMBOL    DATA     ---       rec_buf
      00000055H   SYMBOL    DATA     BYTE      data_no
      01001928H   BLOCK     CODE     NEAR LAB  LVL=1
      00000020H.3 SYMBOL    BIT      BIT       rec_result
      ---         BLOCKEND  ---      ---       LVL=1
      01001920H   LINE      CODE     ---       #68
      01001928H   LINE      CODE     ---       #69
      01001928H   LINE      CODE     ---       #72
      01001932H   LINE      CODE     ---       #74
      0100193DH   LINE      CODE     ---       #75
      01001947H   LINE      CODE     ---       #76
      0100194CH   LINE      CODE     ---       #77
      01001951H   LINE      CODE     ---       #78
      0100195BH   LINE      CODE     ---       #79
      01001968H   LINE      CODE     ---       #81
      0100196AH   LINE      CODE     ---       #82
      ---         BLOCKEND  ---      ---       LVL=0

      ---         MODULE    ---      ---       OLED
      01001D8DH   PUBLIC    CONST    ---       F6x8
      01001727H   PUBLIC    CODE     ---       OLED_Init
      00000043H   PUBLIC    DATA     BYTE      ?_OLED_ShowString?BYTE
      01001A3FH   PUBLIC    CODE     ---       _OLED_ShowString
      00000043H   PUBLIC    DATA     BYTE      ?_OLED_ShowNum?BYTE
      010017AAH   PUBLIC    CODE     ---       _OLED_ShowNum
      01001C84H   PUBLIC    CODE     ---       _oled_pow
      0000004CH   PUBLIC    DATA     BYTE      ?_OLED_ShowChar?BYTE
      010019B5H   PUBLIC    CODE     ---       _OLED_ShowChar
      01001B5BH   PUBLIC    CODE     ---       OLED_Clear
      01001BAEH   PUBLIC    CODE     ---       _OLED_Set_Pos
      01001CD9H   PUBLIC    CODE     ---       _OLED_WR_Byte
      01001D68H   PUBLIC    CODE     ---       _Write_IIC_Data
      01001D5DH   PUBLIC    CODE     ---       _Write_IIC_Command
      01001C1AH   PUBLIC    CODE     ---       _Write_IIC_Byte
      01001D05H   PUBLIC    CODE     ---       IIC_Wait_Ack
      01001D86H   PUBLIC    CODE     ---       IIC_Stop
      01001D7DH   PUBLIC    CODE     ---       IIC_Start
      00000080H   SFRSYM    DATA     BYTE      P0
      00000090H   SFRSYM    DATA     BYTE      P1
LX51 LINKER/LOCATER V4.41                                                             12/29/2020  21:56:30  PAGE 39


      000000A0H   SFRSYM    DATA     BYTE      P2
      000000B0H   SFRSYM    DATA     BYTE      P3
      000000B0H.4 SFRSYM    DATA     BIT       T0
      000000D0H.6 SFRSYM    DATA     BIT       AC
      000000B0H.5 SFRSYM    DATA     BIT       T1
      000000A8H.7 SFRSYM    DATA     BIT       EA
      000000A8H   SFRSYM    DATA     BYTE      IE
      000000B0H.7 SFRSYM    DATA     BIT       RD
      000000A8H.4 SFRSYM    DATA     BIT       ES
      000000B8H   SFRSYM    DATA     BYTE      IP
      00000098H   SFRSYM    DATA     BIT       RI
      000000B0H.2 SFRSYM    DATA     BIT       INT0
      000000D0H.7 SFRSYM    DATA     BIT       CY
      00000098H.1 SFRSYM    DATA     BIT       TI
      000000B0H.3 SFRSYM    DATA     BIT       INT1
      000000B8H.4 SFRSYM    DATA     BIT       PS
      00000081H   SFRSYM    DATA     BYTE      SP
      000000D0H.2 SFRSYM    DATA     BIT       OV
      000000B0H.6 SFRSYM    DATA     BIT       WR
      00000099H   SFRSYM    DATA     BYTE      SBUF
      00000087H   SFRSYM    DATA     BYTE      PCON
      00000098H   SFRSYM    DATA     BYTE      SCON
      00000080H.5 SFRSYM    DATA     BIT       OLED_SDIN
      00000089H   SFRSYM    DATA     BYTE      TMOD
      00000088H   SFRSYM    DATA     BYTE      TCON
      00000088H.1 SFRSYM    DATA     BIT       IE0
      00000088H.3 SFRSYM    DATA     BIT       IE1
      000000F0H   SFRSYM    DATA     BYTE      B
      000000E0H   SFRSYM    DATA     BYTE      ACC
      000000A8H.1 SFRSYM    DATA     BIT       ET0
      000000A8H.3 SFRSYM    DATA     BIT       ET1
      00000088H.5 SFRSYM    DATA     BIT       TF0
      00000088H.7 SFRSYM    DATA     BIT       TF1
      00000098H.2 SFRSYM    DATA     BIT       RB8
      0000008CH   SFRSYM    DATA     BYTE      TH0
      000000A8H   SFRSYM    DATA     BIT       EX0
      00000088H   SFRSYM    DATA     BIT       IT0
      0000008DH   SFRSYM    DATA     BYTE      TH1
      00000098H.3 SFRSYM    DATA     BIT       TB8
      000000A8H.2 SFRSYM    DATA     BIT       EX1
      00000088H.2 SFRSYM    DATA     BIT       IT1
      000000D0H   SFRSYM    DATA     BIT       P
      00000098H.7 SFRSYM    DATA     BIT       SM0
      0000008AH   SFRSYM    DATA     BYTE      TL0
      00000098H.6 SFRSYM    DATA     BIT       SM1
      0000008BH   SFRSYM    DATA     BYTE      TL1
      00000098H.5 SFRSYM    DATA     BIT       SM2
      000000B8H.1 SFRSYM    DATA     BIT       PT0
      000000B8H.3 SFRSYM    DATA     BIT       PT1
      000000D0H.3 SFRSYM    DATA     BIT       RS0
      00000088H.4 SFRSYM    DATA     BIT       TR0
      000000D0H.4 SFRSYM    DATA     BIT       RS1
      00000088H.6 SFRSYM    DATA     BIT       TR1
      000000B8H   SFRSYM    DATA     BIT       PX0
      000000B8H.2 SFRSYM    DATA     BIT       PX1
      00000083H   SFRSYM    DATA     BYTE      DPH
      00000082H   SFRSYM    DATA     BYTE      DPL
      00000098H.4 SFRSYM    DATA     BIT       REN
      00000080H.4 SFRSYM    DATA     BIT       OLED_SCL
      000000B0H   SFRSYM    DATA     BIT       RXD
      000000B0H.1 SFRSYM    DATA     BIT       TXD
      000000D0H.5 SFRSYM    DATA     BIT       F0
      000000D0H   SFRSYM    DATA     BYTE      PSW

      01001ABEH   BLOCK     CODE     ---       LVL=0
LX51 LINKER/LOCATER V4.41                                                             12/29/2020  21:56:30  PAGE 40


      ---         BLOCKEND  ---      ---       LVL=0

      01001D7DH   BLOCK     CODE     ---       LVL=0
      01001D7DH   LINE      CODE     ---       #11
      01001D7DH   LINE      CODE     ---       #12
      01001D7DH   LINE      CODE     ---       #13
      01001D7FH   LINE      CODE     ---       #15
      01001D81H   LINE      CODE     ---       #21
      01001D83H   LINE      CODE     ---       #26
      01001D85H   LINE      CODE     ---       #29
      ---         BLOCKEND  ---      ---       LVL=0

      01001D86H   BLOCK     CODE     ---       LVL=0
      01001D86H   LINE      CODE     ---       #39
      01001D86H   LINE      CODE     ---       #40
      01001D86H   LINE      CODE     ---       #41
      01001D88H   LINE      CODE     ---       #43
      01001D8AH   LINE      CODE     ---       #49
      01001D8CH   LINE      CODE     ---       #54
      ---         BLOCKEND  ---      ---       LVL=0

      01001CFAH   BLOCK     CODE     ---       LVL=0
      ---         BLOCKEND  ---      ---       LVL=0

      01001D05H   BLOCK     CODE     ---       LVL=0
      01001D05H   LINE      CODE     ---       #56
      01001D05H   LINE      CODE     ---       #57
      01001D05H   LINE      CODE     ---       #58
      01001D07H   LINE      CODE     ---       #61
      01001D09H   LINE      CODE     ---       #64
      ---         BLOCKEND  ---      ---       LVL=0

      01001C1AH   BLOCK     CODE     ---       LVL=0
      00000007H   SYMBOL    DATA     BYTE      IIC_Byte
      01001C1AH   BLOCK     CODE     NEAR LAB  LVL=1
      00000006H   SYMBOL    DATA     BYTE      i
      00000005H   SYMBOL    DATA     BYTE      m
      00000007H   SYMBOL    DATA     BYTE      da
      ---         BLOCKEND  ---      ---       LVL=1
      01001C1AH   LINE      CODE     ---       #74
      01001C1AH   LINE      CODE     ---       #75
      01001C1AH   LINE      CODE     ---       #78
      01001C1AH   LINE      CODE     ---       #79
      01001C1CH   LINE      CODE     ---       #80
      01001C1EH   LINE      CODE     ---       #81
      01001C1EH   LINE      CODE     ---       #82
      01001C20H   LINE      CODE     ---       #83
      01001C23H   LINE      CODE     ---       #84
      01001C26H   LINE      CODE     ---       #85
      01001C26H   LINE      CODE     ---       #86
      01001C28H   LINE      CODE     ---       #87
      01001C2AH   LINE      CODE     ---       #88
      01001C2CH   LINE      CODE     ---       #89
      01001C30H   LINE      CODE     ---       #92
      01001C32H   LINE      CODE     ---       #95
      01001C34H   LINE      CODE     ---       #98
      01001C38H   LINE      CODE     ---       #99
      ---         BLOCKEND  ---      ---       LVL=0

      01001D5DH   BLOCK     CODE     ---       LVL=0
      00000004H   SYMBOL    DATA     BYTE      IIC_Command
      01001D5DH   LINE      CODE     ---       #109
      01001D5DH   LINE      CODE     ---       #110
      01001D5DH   LINE      CODE     ---       #111
      01001D5DH   LINE      CODE     ---       #112
LX51 LINKER/LOCATER V4.41                                                             12/29/2020  21:56:30  PAGE 41


      01001D5DH   LINE      CODE     ---       #113
      01001D60H   LINE      CODE     ---       #114
      01001D62H   LINE      CODE     ---       #115
      01001D62H   LINE      CODE     ---       #116
      01001D62H   LINE      CODE     ---       #117
      01001D65H   LINE      CODE     ---       #118
      ---         BLOCKEND  ---      ---       LVL=0

      01001D68H   BLOCK     CODE     ---       LVL=0
      00000004H   SYMBOL    DATA     BYTE      IIC_Data
      01001D68H   LINE      CODE     ---       #128
      01001D68H   LINE      CODE     ---       #129
      01001D68H   LINE      CODE     ---       #130
      01001D68H   LINE      CODE     ---       #131
      01001D68H   LINE      CODE     ---       #132
      01001D6BH   LINE      CODE     ---       #133
      01001D6DH   LINE      CODE     ---       #134
      01001D6DH   LINE      CODE     ---       #135
      01001D6DH   LINE      CODE     ---       #136
      01001D70H   LINE      CODE     ---       #137
      ---         BLOCKEND  ---      ---       LVL=0

      01001CD9H   BLOCK     CODE     ---       LVL=0
      00000002H   SYMBOL    DATA     WORD      dat
      00000004H   SYMBOL    DATA     WORD      cmd
      01001CD9H   LINE      CODE     ---       #147
      01001CDDH   LINE      CODE     ---       #148
      01001CDDH   LINE      CODE     ---       #149
      01001CE1H   LINE      CODE     ---       #150
      01001CE1H   LINE      CODE     ---       #151
      01001CE4H   LINE      CODE     ---       #152
      01001CE4H   LINE      CODE     ---       #154
      01001CE4H   LINE      CODE     ---       #155
      01001CE9H   LINE      CODE     ---       #156
      01001CE9H   LINE      CODE     ---       #157
      ---         BLOCKEND  ---      ---       LVL=0

      01001BAEH   BLOCK     CODE     ---       LVL=0
      00000001H   SYMBOL    DATA     BYTE      x
      00000005H   SYMBOL    DATA     BYTE      y
      01001BAEH   LINE      CODE     ---       #168
      01001BB0H   LINE      CODE     ---       #169
      01001BB0H   LINE      CODE     ---       #170
      01001BB7H   LINE      CODE     ---       #171
      01001BC8H   LINE      CODE     ---       #172
      ---         BLOCKEND  ---      ---       LVL=0

      01001B5BH   BLOCK     CODE     ---       LVL=0
      01001B5BH   BLOCK     CODE     NEAR LAB  LVL=1
      00000001H   SYMBOL    DATA     BYTE      i
      00000043H   SYMBOL    DATA     BYTE      n
      ---         BLOCKEND  ---      ---       LVL=1
      01001B5BH   LINE      CODE     ---       #213
      01001B5BH   LINE      CODE     ---       #214
      01001B5BH   LINE      CODE     ---       #216
      01001B5DH   LINE      CODE     ---       #217
      01001B5DH   LINE      CODE     ---       #218
      01001B60H   LINE      CODE     ---       #219
      01001B64H   LINE      CODE     ---       #220
      01001B6DH   LINE      CODE     ---       #221
      01001B83H   LINE      CODE     ---       #222
      01001B87H   LINE      CODE     ---       #223
      ---         BLOCKEND  ---      ---       LVL=0
      00000001H   SYMBOL    DATA     BYTE      i

LX51 LINKER/LOCATER V4.41                                                             12/29/2020  21:56:30  PAGE 42


      010019B5H   BLOCK     CODE     ---       LVL=0
      00000007H   SYMBOL    DATA     BYTE      x
      00000005H   SYMBOL    DATA     BYTE      y
      00000003H   SYMBOL    DATA     BYTE      chr
      0000004FH   SYMBOL    DATA     BYTE      Char_Size
      010019B5H   BLOCK     CODE     NEAR LAB  LVL=1
      00000050H   SYMBOL    DATA     BYTE      c
      00000001H   SYMBOL    DATA     BYTE      i
      ---         BLOCKEND  ---      ---       LVL=1
      010019B5H   LINE      CODE     ---       #256
      010019B5H   LINE      CODE     ---       #257
      010019B5H   LINE      CODE     ---       #258
      010019B9H   LINE      CODE     ---       #259
      010019BEH   LINE      CODE     ---       #260
      010019C8H   LINE      CODE     ---       #261
      010019CEH   LINE      CODE     ---       #262
      010019CEH   LINE      CODE     ---       #269
      010019CEH   LINE      CODE     ---       #271
      010019CEH   LINE      CODE     ---       #272
      010019D1H   LINE      CODE     ---       #273
      010019D3H   LINE      CODE     ---       #274
      010019FDH   LINE      CODE     ---       #275
      010019FDH   LINE      CODE     ---       #276
      ---         BLOCKEND  ---      ---       LVL=0

      01001C84H   BLOCK     CODE     ---       LVL=0
      0000004CH   SYMBOL    DATA     BYTE      m
      00000001H   SYMBOL    DATA     BYTE      n
      01001C88H   BLOCK     CODE     NEAR LAB  LVL=1
      00000006H   SYMBOL    DATA     WORD      result
      ---         BLOCKEND  ---      ---       LVL=1
      01001C84H   LINE      CODE     ---       #286
      01001C88H   LINE      CODE     ---       #287
      01001C88H   LINE      CODE     ---       #288
      01001C8CH   LINE      CODE     ---       #289
      01001C9BH   LINE      CODE     ---       #290
      01001C9BH   LINE      CODE     ---       #292
      ---         BLOCKEND  ---      ---       LVL=0

      010017AAH   BLOCK     CODE     ---       LVL=0
      00000043H   SYMBOL    DATA     BYTE      x
      00000044H   SYMBOL    DATA     BYTE      y
      00000045H   SYMBOL    DATA     WORD      num
      00000047H   SYMBOL    DATA     BYTE      len
      00000048H   SYMBOL    DATA     BYTE      Num_size
      010017B2H   BLOCK     CODE     NEAR LAB  LVL=1
      00000049H   SYMBOL    DATA     BYTE      t
      0000004AH   SYMBOL    DATA     BYTE      temp
      0000004BH   SYMBOL    DATA     BYTE      enshow
      ---         BLOCKEND  ---      ---       LVL=1
      010017AAH   LINE      CODE     ---       #306
      010017B2H   LINE      CODE     ---       #307
      010017B2H   LINE      CODE     ---       #309
      010017B5H   LINE      CODE     ---       #310
      010017BEH   LINE      CODE     ---       #311
      010017BEH   LINE      CODE     ---       #312
      010017E0H   LINE      CODE     ---       #313
      010017EEH   LINE      CODE     ---       #314
      010017EEH   LINE      CODE     ---       #315
      010017F2H   LINE      CODE     ---       #316
      010017F2H   LINE      CODE     ---       #317
      010017FAH   LINE      CODE     ---       #318
      010017FCH   LINE      CODE     ---       #319
      010017FCH   LINE      CODE     ---       #320
      010017FFH   LINE      CODE     ---       #321
LX51 LINKER/LOCATER V4.41                                                             12/29/2020  21:56:30  PAGE 43


      010017FFH   LINE      CODE     ---       #322
      0100180FH   LINE      CODE     ---       #323
      01001813H   LINE      CODE     ---       #324
      ---         BLOCKEND  ---      ---       LVL=0

      01001A3FH   BLOCK     CODE     ---       LVL=0
      00000043H   SYMBOL    DATA     BYTE      x
      00000044H   SYMBOL    DATA     BYTE      y
      00000045H   SYMBOL    DATA     ---       chr
      00000048H   SYMBOL    DATA     BYTE      Char_Size
      01001A49H   BLOCK     CODE     NEAR LAB  LVL=1
      00000049H   SYMBOL    DATA     BYTE      j
      ---         BLOCKEND  ---      ---       LVL=1
      01001A3FH   LINE      CODE     ---       #334
      01001A49H   LINE      CODE     ---       #335
      01001A49H   LINE      CODE     ---       #336
      01001A4CH   LINE      CODE     ---       #337
      01001A5EH   LINE      CODE     ---       #338
      01001A5EH   LINE      CODE     ---       #339
      01001A68H   LINE      CODE     ---       #340
      01001A6EH   LINE      CODE     ---       #341
      01001A73H   LINE      CODE     ---       #342
      01001A73H   LINE      CODE     ---       #343
      01001A76H   LINE      CODE     ---       #344
      01001A7AH   LINE      CODE     ---       #345
      01001A7AH   LINE      CODE     ---       #346
      01001A7CH   LINE      CODE     ---       #347
      01001A7EH   LINE      CODE     ---       #348
      ---         BLOCKEND  ---      ---       LVL=0

      01001727H   BLOCK     CODE     ---       LVL=0
      01001727H   LINE      CODE     ---       #384
      01001727H   LINE      CODE     ---       #385
      01001727H   LINE      CODE     ---       #386
      0100172CH   LINE      CODE     ---       #387
      01001730H   LINE      CODE     ---       #388
      01001735H   LINE      CODE     ---       #389
      0100173AH   LINE      CODE     ---       #390
      0100173FH   LINE      CODE     ---       #391
      01001744H   LINE      CODE     ---       #392
      01001749H   LINE      CODE     ---       #393
      0100174EH   LINE      CODE     ---       #394
      01001753H   LINE      CODE     ---       #395
      01001758H   LINE      CODE     ---       #396
      0100175DH   LINE      CODE     ---       #397
      01001762H   LINE      CODE     ---       #398
      01001767H   LINE      CODE     ---       #399
      0100176BH   LINE      CODE     ---       #401
      01001770H   LINE      CODE     ---       #402
      01001775H   LINE      CODE     ---       #404
      0100177AH   LINE      CODE     ---       #405
      0100177FH   LINE      CODE     ---       #407
      01001784H   LINE      CODE     ---       #408
      01001789H   LINE      CODE     ---       #410
      0100178EH   LINE      CODE     ---       #411
      01001793H   LINE      CODE     ---       #413
      01001798H   LINE      CODE     ---       #414
      010017A1H   LINE      CODE     ---       #416
      010017A1H   LINE      CODE     ---       #417
      010017A1H   LINE      CODE     ---       #419
      ---         BLOCKEND  ---      ---       LVL=0

      ---         MODULE    ---      ---       ?RTX51_TINY_KERNAL
      010007ECH   PUBLIC    CODE     ---       ?RTX?SET_ISR
      0000000CH   PUBLIC    DATA     ---       ?RTX_CURRENTTASK
LX51 LINKER/LOCATER V4.41                                                             12/29/2020  21:56:30  PAGE 44


      00000007H   PUBLIC    DATA     ---       ?RTX_NEXTID
      0100082FH   PUBLIC    CODE     ---       ?RTX_NEXTTASK
      000000FFH   PUBLIC    NUMBER   ---       ?RTX_RAMTOP
      01001D0AH   PUBLIC    CODE     ---       ?RTX_TASKENTRY
      0100090EH   PUBLIC    CODE     ---       ?RTX_TASKIDX
      00000079H   PUBLIC    IDATA    ---       ?RTX_TASKSP
      00000069H   PUBLIC    IDATA    ---       ?RTX_TASKSTATUS
      010008D2H   PUBLIC    CODE     ---       MAIN
      01000818H   PUBLIC    CODE     ---       OS_SWITCH_TASK
      01000821H   SYMBOL    CODE     ---       ?C0001
      0100082BH   SYMBOL    CODE     ---       ?C0003
      01000830H   SYMBOL    CODE     ---       ?C0005
      0100084AH   SYMBOL    CODE     ---       ?C0007
      0100084CH   SYMBOL    CODE     ---       ?C0009
      01000856H   SYMBOL    CODE     ---       ?C0011
      01000883H   SYMBOL    CODE     ---       ?C0012
      01000869H   SYMBOL    CODE     ---       ?C0013
      0100086EH   SYMBOL    CODE     ---       ?C0015
      01000879H   SYMBOL    CODE     ---       ?C0016
      00000000H   SYMBOL    NUMBER   ---       ?RTX51_TINY_KERNAL
      0000FC18H   SYMBOL    NUMBER   ---       ?RTX_CLOCK
      00000008H   SYMBOL    NUMBER   ---       ?RTX_REGISTERBANK
      0000000DH   SYMBOL    DATA     ---       ?RTX_ROBINTIME
      0000000AH   SYMBOL    DATA     ---       ?RTX_SAVEACC
      0000000BH   SYMBOL    DATA     ---       ?RTX_SAVEPSW
      0100079DH   SYMBOL    CODE     ---       ?RTX_STACKERROR
      010007F0H   SYMBOL    CODE     ---       ?RTX_TASKSWITCHING
      00000020H.7 SYMBOL    BIT      ---       ?RTX_TS_DELAY
      000000E0H   SYMBOL    DATA     ---       ACC
      000000F0H   SYMBOL    DATA     ---       B
      00000005H   SYMBOL    NUMBER   ---       B_ACTIVE
      00000007H   SYMBOL    NUMBER   ---       B_IVL
      00000007H   SYMBOL    NUMBER   ---       B_RDY
      00000004H   SYMBOL    NUMBER   ---       B_READY
      00000006H   SYMBOL    NUMBER   ---       B_ROBIN
      00000002H   SYMBOL    NUMBER   ---       B_SIGNAL
      00000003H   SYMBOL    NUMBER   ---       B_TIMEOUT
      00000000H   SYMBOL    NUMBER   ---       B_WAITSIG
      00000001H   SYMBOL    NUMBER   ---       B_WAITTIM
      010007EDH   SYMBOL    CODE     ---       CHECKROBINTIME
      010007C7H   SYMBOL    CODE     ---       CHECKSTACK
      00000000H   SYMBOL    NUMBER   ---       CODE_BANKING
      00000000H   SYMBOL    NUMBER   ---       CPU_IDLE_CODE
      00000083H   SYMBOL    DATA     ---       DPH
      00000082H   SYMBOL    DATA     ---       DPL
      000000A8H.7 SYMBOL    BIT      ---       EA
      000000A8H.4 SYMBOL    BIT      ---       ES
      000000A8H.1 SYMBOL    BIT      ---       ET0
      000000A8H.3 SYMBOL    BIT      ---       ET1
      000000A8H.0 SYMBOL    BIT      ---       EX0
      000000A8H.2 SYMBOL    BIT      ---       EX1
      00000014H   SYMBOL    NUMBER   ---       FREE_STACK
      010007A1H   SYMBOL    CODE     ---       HW_TIMER
      000000A8H   SYMBOL    DATA     ---       IE
      00000088H.1 SYMBOL    BIT      ---       IE0
      00000088H.3 SYMBOL    BIT      ---       IE1
      000003E8H   SYMBOL    NUMBER   ---       INT_CLOCK
      00000001H   SYMBOL    NUMBER   ---       INT_REGBANK
      00000088H.0 SYMBOL    BIT      ---       IT0
      00000088H.2 SYMBOL    BIT      ---       IT1
      00000020H   SYMBOL    NUMBER   ---       K_ACTIVE
      00000080H   SYMBOL    NUMBER   ---       K_IVL
      00000080H   SYMBOL    NUMBER   ---       K_RDY
      00000010H   SYMBOL    NUMBER   ---       K_READY
      00000040H   SYMBOL    NUMBER   ---       K_ROBIN
LX51 LINKER/LOCATER V4.41                                                             12/29/2020  21:56:30  PAGE 45


      00000001H   SYMBOL    NUMBER   ---       K_SIG
      00000002H   SYMBOL    NUMBER   ---       K_TMO
      00000000H   SYMBOL    NUMBER   ---       LONG_USR_INTR
      010008DBH   SYMBOL    CODE     ---       MAIN1
      010008E5H   SYMBOL    CODE     ---       MAIN1X
      010008E0H   SYMBOL    CODE     ---       MAIN2
      010008A6H   SYMBOL    CODE     ---       NOEVENT
      010007ECH   SYMBOL    CODE     ---       NOROBINTIMEOUT
      010007E3H   SYMBOL    CODE     ---       NOTIMEOUT
      010007E1H   SYMBOL    CODE     ---       NOWAITTIMEOUT
      01000818H   SYMBOL    CODE     ---       OS_SWITCH_TASK1
      00000087H   SYMBOL    DATA     ---       PCON
      000000D0H   SYMBOL    DATA     ---       PSW
      000000FFH   SYMBOL    NUMBER   ---       RAMTOP
      00000080H   SYMBOL    NUMBER   ---       RDY_EVENT
      010008B2H   SYMBOL    CODE     ---       ROBINON
      0100089AH   SYMBOL    CODE     ---       SIGNALOFF
      010008A6H   SYMBOL    CODE     ---       SIGNALON
      00000004H   SYMBOL    NUMBER   ---       SIG_EVENT
      00000081H   SYMBOL    DATA     ---       SP
      0000006AH   SYMBOL    IDATA    ---       TASKSTATE
      00000088H   SYMBOL    DATA     ---       TCON
      00000088H.5 SYMBOL    BIT      ---       TF0
      00000088H.7 SYMBOL    BIT      ---       TF1
      0000008CH   SYMBOL    DATA     ---       TH0
      0000008DH   SYMBOL    DATA     ---       TH1
      010008A2H   SYMBOL    CODE     ---       TIMEOUTON
      010007A2H   SYMBOL    CODE     ---       TIMERINT
      010007D3H   SYMBOL    CODE     ---       TIMERLOOP
      00000069H   SYMBOL    IDATA    ---       TIMERVAL
      00000064H   SYMBOL    NUMBER   ---       TIMESHARING
      0000008AH   SYMBOL    DATA     ---       TL0
      0000008BH   SYMBOL    DATA     ---       TL1
      00000089H   SYMBOL    DATA     ---       TMOD
      00000008H   SYMBOL    NUMBER   ---       TMO_EVENT
      00000088H.4 SYMBOL    BIT      ---       TR0
      00000088H.6 SYMBOL    BIT      ---       TR1
      0100000BH   LINE      CODE     ---       #271
      0100079DH   LINE      CODE     ---       #279
      0100079FH   LINE      CODE     ---       #279
      010007A1H   LINE      CODE     ---       #282
      010007A2H   LINE      CODE     ---       #299
      010007A5H   LINE      CODE     ---       #301
      010007A8H   LINE      CODE     ---       #302
      010007ABH   LINE      CODE     ---       #303
      010007ADH   LINE      CODE     ---       #305
      010007AFH   LINE      CODE     ---       #306
      010007B1H   LINE      CODE     ---       #307
      010007B3H   LINE      CODE     ---       #308
      010007B5H   LINE      CODE     ---       #309
      010007B7H   LINE      CODE     ---       #310
      010007B9H   LINE      CODE     ---       #311
      010007BBH   LINE      CODE     ---       #312
      010007BDH   LINE      CODE     ---       #316
      010007BEH   LINE      CODE     ---       #317
      010007C0H   LINE      CODE     ---       #318
      010007C1H   LINE      CODE     ---       #319
      010007C2H   LINE      CODE     ---       #320
      010007C5H   LINE      CODE     ---       #321
      010007C7H   LINE      CODE     ---       #322
      010007C8H   LINE      CODE     ---       #323
      010007CAH   LINE      CODE     ---       #324
      010007CDH   LINE      CODE     ---       #325
      010007CFH   LINE      CODE     ---       #329
      010007D1H   LINE      CODE     ---       #330
LX51 LINKER/LOCATER V4.41                                                             12/29/2020  21:56:30  PAGE 46


      010007D3H   LINE      CODE     ---       #331
      010007D4H   LINE      CODE     ---       #332
      010007D5H   LINE      CODE     ---       #333
      010007D6H   LINE      CODE     ---       #334
      010007D8H   LINE      CODE     ---       #335
      010007DAH   LINE      CODE     ---       #336
      010007DBH   LINE      CODE     ---       #337
      010007DEH   LINE      CODE     ---       #338
      010007E0H   LINE      CODE     ---       #339
      010007E1H   LINE      CODE     ---       #340
      010007E3H   LINE      CODE     ---       #341
      010007E4H   LINE      CODE     ---       #342
      010007E6H   LINE      CODE     ---       #344
      010007E7H   LINE      CODE     ---       #345
      010007E9H   LINE      CODE     ---       #360
      010007ECH   LINE      CODE     ---       #366
      010007EDH   LINE      CODE     ---       #367
      010007F0H   LINE      CODE     ---       #370
      010007F2H   LINE      CODE     ---       #371
      010007F4H   LINE      CODE     ---       #372
      010007F6H   LINE      CODE     ---       #373
      010007F8H   LINE      CODE     ---       #374
      010007FAH   LINE      CODE     ---       #375
      010007FCH   LINE      CODE     ---       #376
      010007FEH   LINE      CODE     ---       #377
      01000800H   LINE      CODE     ---       #378
      01000802H   LINE      CODE     ---       #379
      01000804H   LINE      CODE     ---       #380
      01000806H   LINE      CODE     ---       #381
      01000808H   LINE      CODE     ---       #382
      0100080AH   LINE      CODE     ---       #387
      0100080CH   LINE      CODE     ---       #388
      0100080DH   LINE      CODE     ---       #389
      0100080FH   LINE      CODE     ---       #390
      01000810H   LINE      CODE     ---       #391
      01000812H   LINE      CODE     ---       #392
      01000814H   LINE      CODE     ---       #393
      01000815H   LINE      CODE     ---       #394
      01000816H   LINE      CODE     ---       #395
      01000818H   LINE      CODE     ---       #424
      0100081AH   LINE      CODE     ---       #426
      0100081CH   LINE      CODE     ---       #427
      0100081DH   LINE      CODE     ---       #429
      0100081EH   LINE      CODE     ---       #430
      01000820H   LINE      CODE     ---       #431
      01000821H   LINE      CODE     ---       #434
      01000822H   LINE      CODE     ---       #435
      01000823H   LINE      CODE     ---       #436
      01000824H   LINE      CODE     ---       #444
      01000827H   LINE      CODE     ---       #445
      01000829H   LINE      CODE     ---       #446
      0100082BH   LINE      CODE     ---       #449
      0100082CH   LINE      CODE     ---       #450
      0100082FH   LINE      CODE     ---       #458
      01000830H   LINE      CODE     ---       #462
      01000832H   LINE      CODE     ---       #463
      01000833H   LINE      CODE     ---       #464
      01000834H   LINE      CODE     ---       #465
      01000836H   LINE      CODE     ---       #468
      01000838H   LINE      CODE     ---       #470
      0100083AH   LINE      CODE     ---       #471
      0100083CH   LINE      CODE     ---       #472
      0100083DH   LINE      CODE     ---       #473
      0100083EH   LINE      CODE     ---       #474
      0100083FH   LINE      CODE     ---       #476
LX51 LINKER/LOCATER V4.41                                                             12/29/2020  21:56:30  PAGE 47


      01000841H   LINE      CODE     ---       #478
      01000842H   LINE      CODE     ---       #479
      01000843H   LINE      CODE     ---       #480
      01000845H   LINE      CODE     ---       #481
      01000848H   LINE      CODE     ---       #482
      0100084AH   LINE      CODE     ---       #484
      0100084BH   LINE      CODE     ---       #485
      0100084CH   LINE      CODE     ---       #490
      0100084DH   LINE      CODE     ---       #491
      0100084EH   LINE      CODE     ---       #492
      01000850H   LINE      CODE     ---       #496
      01000851H   LINE      CODE     ---       #497
      01000852H   LINE      CODE     ---       #498
      01000854H   LINE      CODE     ---       #499
      01000856H   LINE      CODE     ---       #505
      01000858H   LINE      CODE     ---       #506
      01000859H   LINE      CODE     ---       #507
      0100085AH   LINE      CODE     ---       #508
      0100085CH   LINE      CODE     ---       #510
      0100085EH   LINE      CODE     ---       #511
      01000860H   LINE      CODE     ---       #512
      01000861H   LINE      CODE     ---       #513
      01000862H   LINE      CODE     ---       #516
      01000864H   LINE      CODE     ---       #517
      01000867H   LINE      CODE     ---       #518
      01000869H   LINE      CODE     ---       #520
      0100086AH   LINE      CODE     ---       #522
      0100086BH   LINE      CODE     ---       #523
      0100086CH   LINE      CODE     ---       #524
      0100086DH   LINE      CODE     ---       #525
      0100086EH   LINE      CODE     ---       #529
      01000870H   LINE      CODE     ---       #530
      01000871H   LINE      CODE     ---       #531
      01000873H   LINE      CODE     ---       #535
      01000875H   LINE      CODE     ---       #536
      01000876H   LINE      CODE     ---       #537
      01000877H   LINE      CODE     ---       #539
      01000879H   LINE      CODE     ---       #543
      0100087BH   LINE      CODE     ---       #544
      0100087DH   LINE      CODE     ---       #545
      0100087EH   LINE      CODE     ---       #546
      0100087FH   LINE      CODE     ---       #548
      01000881H   LINE      CODE     ---       #549
      01000883H   LINE      CODE     ---       #555
      01000886H   LINE      CODE     ---       #559
      01000888H   LINE      CODE     ---       #560
      01000889H   LINE      CODE     ---       #561
      0100088BH   LINE      CODE     ---       #562
      0100088CH   LINE      CODE     ---       #563
      0100088EH   LINE      CODE     ---       #564
      01000890H   LINE      CODE     ---       #565
      01000891H   LINE      CODE     ---       #567
      01000894H   LINE      CODE     ---       #571
      01000897H   LINE      CODE     ---       #572
      0100089AH   LINE      CODE     ---       #576
      0100089CH   LINE      CODE     ---       #577
      0100089FH   LINE      CODE     ---       #578
      010008A2H   LINE      CODE     ---       #580
      010008A4H   LINE      CODE     ---       #581
      010008A6H   LINE      CODE     ---       #583
      010008A8H   LINE      CODE     ---       #584
      010008A9H   LINE      CODE     ---       #585
      010008ABH   LINE      CODE     ---       #587
      010008ADH   LINE      CODE     ---       #588
      010008AFH   LINE      CODE     ---       #594
LX51 LINKER/LOCATER V4.41                                                             12/29/2020  21:56:30  PAGE 48


      010008B1H   LINE      CODE     ---       #595
      010008B2H   LINE      CODE     ---       #608
      010008B3H   LINE      CODE     ---       #609
      010008B5H   LINE      CODE     ---       #614
      010008B7H   LINE      CODE     ---       #615
      010008B9H   LINE      CODE     ---       #616
      010008BBH   LINE      CODE     ---       #617
      010008BDH   LINE      CODE     ---       #618
      010008BFH   LINE      CODE     ---       #619
      010008C1H   LINE      CODE     ---       #620
      010008C3H   LINE      CODE     ---       #621
      010008C5H   LINE      CODE     ---       #622
      010008C7H   LINE      CODE     ---       #623
      010008C9H   LINE      CODE     ---       #624
      010008CBH   LINE      CODE     ---       #625
      010008CDH   LINE      CODE     ---       #626
      010008CFH   LINE      CODE     ---       #627
      010008D1H   LINE      CODE     ---       #628
      010008D2H   LINE      CODE     ---       #642
      010008D4H   LINE      CODE     ---       #643
      010008D6H   LINE      CODE     ---       #644
      010008D8H   LINE      CODE     ---       #645
      010008DAH   LINE      CODE     ---       #646
      010008DBH   LINE      CODE     ---       #647
      010008DCH   LINE      CODE     ---       #648
      010008DEH   LINE      CODE     ---       #649
      010008E0H   LINE      CODE     ---       #650
      010008E2H   LINE      CODE     ---       #651
      010008E3H   LINE      CODE     ---       #652
      010008E5H   LINE      CODE     ---       #653
      010008E6H   LINE      CODE     ---       #654
      010008E7H   LINE      CODE     ---       #655
      010008E8H   LINE      CODE     ---       #656
      010008E9H   LINE      CODE     ---       #657
      010008EBH   LINE      CODE     ---       #658
      010008EDH   LINE      CODE     ---       #659
      010008EFH   LINE      CODE     ---       #660
      010008F2H   LINE      CODE     ---       #661
      010008F4H   LINE      CODE     ---       #662
      010008F5H   LINE      CODE     ---       #663
      010008F7H   LINE      CODE     ---       #664
      010008F8H   LINE      CODE     ---       #665
      010008F9H   LINE      CODE     ---       #666
      010008FBH   LINE      CODE     ---       #668
      010008FEH   LINE      CODE     ---       #670
      01000901H   LINE      CODE     ---       #671
      01000904H   LINE      CODE     ---       #672
      01000907H   LINE      CODE     ---       #673
      01000909H   LINE      CODE     ---       #674
      0100090BH   LINE      CODE     ---       #675
      0100090DH   LINE      CODE     ---       #676

      ---         MODULE    ---      ---       ?RTX51_TINY_OS_CREATE
      0100090FH   PUBLIC    CODE     ---       _OS_CREATE_TASK

      ---         MODULE    ---      ---       ?RTX51_TINY_OS_DELETE
      01000998H   PUBLIC    CODE     ---       _OS_DELETE_TASK

      ---         MODULE    ---      ---       ?RTX51_TINY_OS_SEND_SIGNAL
      01000A21H   PUBLIC    CODE     ---       _ISR_SEND_SIGNAL
      01000A21H   PUBLIC    CODE     ---       _OS_SEND_SIGNAL

      ---         MODULE    ---      ---       ?RTX51_TINY_OS_WAIT
      01000A48H   PUBLIC    CODE     ---       _OS_WAIT
      01000A48H   PUBLIC    CODE     ---       _OS_WAIT1
LX51 LINKER/LOCATER V4.41                                                             12/29/2020  21:56:30  PAGE 49


      01000A48H   PUBLIC    CODE     ---       _OS_WAIT2

      ---         MODULE    ---      ---       ?C?FPADD
      0100002DH   PUBLIC    CODE     ---       ?C?FPADD
      01000029H   PUBLIC    CODE     ---       ?C?FPSUB

      ---         MODULE    ---      ---       ?C?FPMUL
      0100011EH   PUBLIC    CODE     ---       ?C?FPMUL

      ---         MODULE    ---      ---       ?C?FCAST
      0100022EH   PUBLIC    CODE     ---       ?C?FCASTC
      01000229H   PUBLIC    CODE     ---       ?C?FCASTI
      01000224H   PUBLIC    CODE     ---       ?C?FCASTL

      ---         MODULE    ---      ---       ?C?CASTF
      01000262H   PUBLIC    CODE     ---       ?C?CASTF

      ---         MODULE    ---      ---       ?C?FPGETOPN
      01000299H   PUBLIC    CODE     ---       ?C?FPGETOPN2
      010002CEH   PUBLIC    CODE     ---       ?C?FPNANRESULT
      010002D8H   PUBLIC    CODE     ---       ?C?FPOVERFLOW
      010002B0H   PUBLIC    CODE     ---       ?C?FPRESULT
      010002C4H   PUBLIC    CODE     ---       ?C?FPRESULT2
      010002D5H   PUBLIC    CODE     ---       ?C?FPUNDERFLOW

      ---         MODULE    ---      ---       ?C_STARTUP
      01000000H   PUBLIC    CODE     ---       ?C_STARTUP

      ---         MODULE    ---      ---       ?C?CLDPTR
      010002E3H   PUBLIC    CODE     ---       ?C?CLDPTR

      ---         MODULE    ---      ---       ?C?CLDOPTR
      010002FCH   PUBLIC    CODE     ---       ?C?CLDOPTR

      ---         MODULE    ---      ---       ?C?CSTPTR
      01000329H   PUBLIC    CODE     ---       ?C?CSTPTR

      ---         MODULE    ---      ---       ?C?IMUL
      0100033BH   PUBLIC    CODE     ---       ?C?IMUL

      ---         MODULE    ---      ---       ?C?UIDIV
      0100034DH   PUBLIC    CODE     ---       ?C?UIDIV

      ---         MODULE    ---      ---       ?C?SIDIV
      010003A2H   PUBLIC    CODE     ---       ?C?SIDIV

      ---         MODULE    ---      ---       ?C?LNEG
      010003D8H   PUBLIC    CODE     ---       ?C?LNEG

      ---         MODULE    ---      ---       ?C_INIT
      010015D6H   PUBLIC    CODE     ---       ?C_START

Program Size: data=124.0 xdata=110 const=552 code=7562
LX51 RUN COMPLETE.  0 WARNING(S),  0 ERROR(S)
